:020000040800F2
:1000000000000820391D00086D1D0008F1060008D9
:10001000F9060008010700080907000800000000B1
:10002000000000000000000000000000D14D0008AA
:100030006D1D0008000000008D4D0008CD4C00082B
:100040006D1D00086D1D00086D1D00086D1D000868
:100050006D1D00086D1D00086D1D00086D1D000858
:100060006D1D00086D1D00086D1D00086D1D000848
:100070006D1D00086D1D00086D1D00086D1D000838
:100080006D1D00086D1D00086D1D0008C1060008EB
:10009000B50600086D1D0008C50600086D1D0008A6
:1000A0006D1D00086D1D00086D1D00086D1D000808
:1000B0006D1D00086D1D00086D1D00086D1D0008F8
:1000C0006D1D00086D1D00086D1D00086D1D0008E8
:1000D0006D1D00086D1D00086D1D00086D1D0008D8
:1000E0006D1D00086D1D00086D1D00086D1D0008C8
:1000F0006D1D00086D1D00086D1D00086D1D0008B8
:100100006D1D00086D1D00086D1D00086D1D0008A7
:100110006D1D00086D1D00086D1D00086D1D000897
:100120006D1D00086D1D00086D1D00086D1D000887
:100130006D1D00086D1D00086D1D0008D506000826
:10014000C90600086D1D0008D90600086D1D0008CD
:100150006D1D00086D1D00086D1D00086D1D000857
:100160006D1D00086D1D00086D1D00086D1D000847
:100170006D1D00086D1D00086D1D000800000000C9
:100180006D1D00086D1D00086D1D00086D1D000827
:100190006D1D00086D1D00086D1D00086D1D000817
:1001A0006D1D00086D1D00086D1D00086D1D000807
:1001B0006D1D00086D1D00086D1D00086D1D0008F7
:1001C0006D1D00086D1D0008000000006D1D000879
:1001D0006D1D00086D1D00086D1D00086D1D0008D7
:1001E000E9060008DD0600086D1D0008ED060008A0
:1001F0006D1D00086D1D00080348044B834202D0AA
:10020000034B03B118477047700C0020700C00209E
:10021000000000000548064B1B1AD90F01EBA30193
:10022000491002D0034B03B118477047700C0020EF
:10023000700C00200000000010B5064C237843B974
:10024000FFF7DAFF044B13B10448AFF3008001233A
:10025000237010BD700C002000000000B86C000876
:1002600008B5054B1BB105490548AFF30080BDE853
:100270000840FFF7CFBF00BF00000000740C002053
:10028000B86C0008A3F5803A704700BF174B002BED
:1002900008BF134B9D46FFF7F5FF00218B460F4625
:1002A0001348144A121A05F0D7FD0E4B002B00D04C
:1002B00098470D4B002B00D09847002000210400E8
:1002C0000D000D48002802D00C48AFF3008005F067
:1002D00027FE2000290004F0CFFB05F055F900BFF0
:1002E000000008000000000025140008000008209D
:1002F000700C0020E8130020000000000000000047
:10030000704710B50446502101F072F8204610BD28
:1003100037B50546044655F8043B9B689847284680
:1003200000F064F823688DED010A2046DB689847E9
:100330009DED010A03B030BD0346006818B9186886
:1003400008B9181D1860704708B50248FFF7F4FF98
:1003500008BD00BF8C0C002008B50248FFF7ECFF79
:1003600008BD00BF8C0C002073B50A4B05460A4E31
:10037000044645F8043B30460191FFF7DDFF019943
:10038000284600F041F83046FFF7D6FF204602B07D
:1003900070BD00BF0C6400088C0C0020002070476A
:1003A0000368012200211B691847036800221B69AA
:1003B000114618476FF01500704703681B6918470E
:1003C00003689B69184703689B6A184700290CBF9C
:1003D0006FF0180000207047012070476FF0150083
:1003E00070476FF0150070477047000008B500F0C7
:1003F00083F807EE900AB8EE670ADFED027A20EE86
:10040000270A08BD010880397FB5A1F1F003044631
:100410000D469BB20F2B39D93149284600F000FE1A
:100420002F492060284600F01BFE2D49064628462D
:1004300000F0B2FD00234FF48032C6F38436A4F8F6
:10044000485023642361A361E3602363636184F8FC
:100450004A60C4E901230122C4E90833C4E90A332C
:10046000E26123681F4A93421BD11F4B5A6C42F42E
:1004700080725A645B6C03F480730193019B204685
:1004800001F08EFC50B3194800F0E8FB18492846EB
:1004900000F0C6FD16492060284600F0E1FD064642
:1004A000C8E7144A93420ED002F580729342E6D117
:1004B0000D4B5A6C42F480625A645B6C03F48063A7
:1004C0000393039BDBE7084B5A6C42F400725A64B7
:1004D0005B6C03F400730293029BD0E704B070BD21
:1004E0001C6400080020014000380240A868000891
:1004F000686600080021014030B5012285B004463D
:100500000323002190F84A00CDE90123039112282A
:100510004FD8DFE800F00A2628292B2D2F3133355C
:1005200037393B3D3F4143484A000091224D6946DF
:1005300020466B6823F440036B6001F089FD204680
:1005400001F0D2FC0A21204601F02EFD78BB2046A6
:1005500001F07AFD80B26B6823F440036B6005B054
:1005600030BD0092E2E702230093DFE70423FBE7BC
:100570000523F9E70623F7E70723F5E70823F3E761
:100580000923F1E70A23EFE70B23EDE70C23EBE761
:100590000D23E9E70E23E7E70F23E5E7074B009379
:1005A00007230293C2E71123F9E71223F7E700209C
:1005B000D1E70020D3E700BF002301401200001064
:1005C00043692DE9F0410D46D907044629D58768CE
:1005D000334E826807EA060C3248A368BE433249AC
:1005E00002EA000203EA010301D10126A660824269
:1005F00002D14FF48070A0608B4202D14FF4803161
:10060000A16027498C4505D026498A4202D0264A56
:10061000934206D1254B0121254A1B6852F825003B
:100620009847E2686369920708D09F0706D51F4B79
:1006300000211F4A1B6852F825009847A16962698A
:100640008E0763690AD5900508D5190406D5174B9E
:100650000521174A1B6852F825009847A769666963
:1006600017F00407626906F4806609D046B11204E7
:1006700006D50E4B07210E4A1B6852F825009847F5
:1006800063695FB156B11B0408D5084B0221084AC3
:100690001B6852F82500BDE8F0411847BDE8F0811D
:1006A000030000040003000800000310A00C002059
:1006B000940C002000210148FFF782BF0064004035
:1006C000FFF7F8BFFFF7F6BF01210148FFF778BF3A
:1006D00000680040FFF7F8BFFFF7F6BF02210148AE
:1006E000FFF76EBF00340040FFF7F8BFFFF7F6BF1B
:1006F0004FF0100300F00CB84FF0200300F008B8E2
:100700004FF0300300F004B84FF0400300F000B8A1
:10071000EFF308804FF0040172460A4201D0EFF374
:1007200009809C46254B196802680A6004314268BA
:100730000A60043182680A600431C2680A600431C8
:10074000F0C147460F6004314F460F6004315746F1
:100750000F6004315F460F60043102690A6008319E
:1007600042690A60043182690A600431C2690A6020
:100770000431034620334FF40076324200D0043374
:1007800075464FF01006354200D148330C46103CF8
:100790002360EFF309820A600431EFF308820A60F4
:1007A000043172460A600431EFF314820A60604635
:1007B000024B196800F026FBFEE70000206B0008E2
:1007C00091FAA1F3B3FA83F391FAA1F130B55B008A
:1007D0000325B1FA81F1046805FA03F3490024EA1C
:1007E00003038A401343036030BD000000B5454B4E
:1007F0008DB00A2800F28380DFE800F006131E297E
:10080000343F4A55606B76001A6B3F4842F0010254
:100810001A631B6B03F001030193019B0DB05DF89C
:1008200004FB1A6B394842F002021A631B6B03F097
:1008300002030293029BF1E71A6B354842F004026F
:100840001A631B6B03F004030393039BE6E71A6B25
:10085000304842F008021A631B6B03F0080304934C
:10086000049BDBE71A6B2C4842F010021A631B6BE7
:1008700003F010030593059BD0E71A6B274842F05D
:1008800020021A631B6B03F020030693069BC5E747
:100890001A6B234842F040021A631B6B03F04003BB
:1008A0000793079BBAE71A6B1E4842F080021A634F
:1008B0001B6B03F080030893089BAFE71A6B1A4881
:1008C00042F480721A631B6B03F480730993099BD3
:1008D000A4E71A6B154842F400721A631B6B03F409
:1008E00000730A930A9B99E71A6B114842F48062DD
:1008F0001A631B6B03F480630B930B9B8EE70D480D
:1009000000F0ACF900380240000002400004024050
:1009100000080240000C0240001002400014024097
:1009200000180240001C0240002002400024024047
:1009300000280240BE68000810B504464FF47071EC
:1009400000F0ACFF012004F00F04A04010BD000037
:100950004B1C70B504460E46018216D0C1F303103D
:10096000FFF744FF05463046FFF7E6FF238A074AB4
:1009700003F00F036561206052F82330A36105F195
:10098000100318356360C4E9025570BDAC6B0008F4
:10099000B0F9100001F002B80A46D0E905010AB921
:1009A000FFF70EBF0122FBE708B503F0DFF80020D8
:1009B00008BD000008B50A4B1B684BB100F024FFCE
:1009C00000F010FF4FF47A72002304F065FC08BDBC
:1009D000044B586A4FF47A73B0FBF3F0F7E700BFAB
:1009E0003C0D0020000C004003460122D3E84F0FCD
:1009F000C3E8412FC0B20029F8D17047D0E84F3F7B
:100A0000C0E8421FD8B2704700B589B0144E154DEA
:100A100000F078F8102101A800F062FA0424039B8A
:100A20003046019A1A6000F0FDFE019B049A3046A0
:100A30001B04136000F0F6FE013CF0D10424039B7C
:100A40002846019A1A6000F0EDFE019B049A2846A0
:100A50001B04136000F0E6FE013CF0D1DEE700BFAE
:100A6000F0490200801A060007B5014600220190F5
:100A7000022000F009FC00F045F80199084605F055
:100A8000D5FA01990246022000F0FEFB03B05DF8A2
:100A900004EB00F041B8000000B5A3B002460B46DD
:100AA000842101A805F0B0F9832806D9074B1A68FC
:100AB0001B79CDF883208DF88730002802DD01A84E
:100AC000FFF7D2FF23B05DF804FB00BFDF6800082A
:100AD0000FB407B504A951F8040B0191FFF7DCFF2F
:100AE00003B05DF804EB04B07047EFF31080C0432F
:100AF00000F001007047EFF30580003818BF0120B7
:100B00007047000008B500F013F8024A136801337B
:100B1000136008BDA40C0020044A136823B1013BF4
:100B200013600BB900F016B8704700BFA40C00208A
:100B3000EFF3108372B6054A117831B9DB430449EB
:100B400003F001030B70012313707047A90C002000
:100B5000A80C0020034B00221A70034B1B7803B132
:100B600062B67047A90C0020A80C002008B50B48FD
:100B7000FFF73AFF28B1FFF7C5FFBFF34F8F20BF44
:100B8000FDE7FFF7B8FF08B1FFF73EFFFFF7ADFF46
:100B90000028F9D0012004F0F7FC00BFF80C002079
:100BA00070B51D4C90B00D46164634EA200428BF9F
:100BB00004463422002103A805F04EF90295CDE940
:100BC0000046FFF79FFF154A13680133012B13609E
:100BD0000BD16D46124C0FCD0FC40FCD0FC40FCDEE
:100BE0000FC495E80F0084E80F006C460D4D0FCC44
:100BF0000FC50FCC0FC50FCC0FC594E80F0085E8CB
:100C00000F00094B1B6813B1A5F130009847FFF79F
:100C100083FF002010B070BD0101FF80AC0C0020EC
:100C2000B80C0020FC0C0020B00C002030B50346AE
:100C300000F13C04084D002013F8012B80EA02600B
:100C4000082200284FEA4000B8BF6840013AF8D1B6
:100C5000A342F1D130BD00BFB71DC1040FB407B529
:100C600001210648CDF804E0FFF7C8FE019A0146CD
:100C700010B90348FFF794FFFFF778FFB40C00208A
:100C80000001FF80044601211D487646154608B53F
:100C9000FFF7B4FE20B9324629462046FFF780FF11
:100CA0001848FFF7C3FF184B184CD3F8BC20154D5C
:100CB000824220460ABFD3F8B43001230133636374
:100CC0000023A363FFF7B2FFE063FFF71BFF0FCC26
:100CD0000FC50FCC0FC50FCC0FC594E80F0085E8EA
:100CE0000F00FFF719FFBFF34F8F0949094BCA687F
:100CF00002F4E0621343CB60BFF34F8F00BFFDE708
:100D0000B40C002078020020F8010020FC0C002028
:100D100000ED00E00400FA05F0B52C4E85B000248B
:100D20002B4F35462146013456F8042B3846FFF741
:100D3000CFFE0D2CF6D1AB6C264C02936B6C264883
:100D400001932B6C0093696BD5E90E23FFF7C0FE6E
:100D500021682248FFF7BCFEE16AA26AA36AA06A82
:100D6000D2B2266BC3F30723E76B000CCDE9016712
:100D700000901B48FFF7ACFEA36A1E0603D5616B0B
:100D80001848FFF7A5FEA36A180403D5A16B1648FF
:100D9000FFF79EFEEB6C190712D51448FFF798FE7B
:100DA0002B6DDA070FD51248FFF792FEEB6C5B074D
:100DB0004CBF1048104805B0BDE8F040FFF788BEB2
:100DC0000E48FFF785FE0E48EEE700BFF801002051
:100DD000E468000800ED00E0F268000841690008DE
:100DE0004F6900089E690008AC690008BA690008EC
:100DF000C9690008F9690008056A0008E96900087E
:100E0000D669000813B504461548FFF761FE302C7B
:100E100017D0402C1AD0202C1DD1124C1248FFF7AD
:100E200057FE1248FFF754FEFFF776FF1048FFF712
:100E30004FFE00230F4A204600930F49D26BFFF765
:100E400021FF0E480E4CFFF743FEEAE70D480E4C1B
:100E5000FFF73EFEE5E70D480D4CFFF739FEE0E7F2
:100E6000116A00083E01FF803A6A0008676A0008BC
:100E7000726A0008F8010020916A0008496A0008B7
:100E80003F01FF80526A00084001FF805D6A000850
:100E90003D01FF8038B504460D4603685AB18268AB
:100EA000204601211360FFF777FD29462046BDE863
:100EB0003840FFF76DBDC2681B04F1E737B50D463A
:100EC00004460192FFF744FD013507D0019A002145
:100ED000204603B0BDE83040FFF7DCBF03B030BDB3
:100EE0000022FFF7EBBF0000294B5A69910370B550
:100EF00015D45A6912F4003211D1BFF34F8FBFF3EA
:100F00006F8FC3F85022BFF34F8FBFF36F8F5A69B3
:100F100042F400325A61BFF34F8FBFF36F8F1C4B07
:100F20005A69D20327D45A6912F4803223D1C3F804
:100F30008420BFF34F8FD3F8802043F6E074C2F3D0
:100F4000C900C2F34E32520102EA0406014646EAE3
:100F500081750139C3F86052F9D2203A12F1200F9D
:100F6000F2D1BFF34F8F5A6942F480325A61BFF316
:100F70004F8FBFF36F8F02F0A7FD00F0F9FE02F074
:100F800095FD02F0A1FD034B01221A6070BD00BF68
:100F900000ED00E03C0D00201FB5431C10D105B052
:100FA0005DF804FB83420AD18968039000F076FC67
:100FB0000021039805B05DF804EB00F0EFBC0C31A4
:100FC000B1F900305A1CEDD10023024602481946FF
:100FD0000093FFF757FE00BF30010180884207B53C
:100FE00002460AD0431C08D0013105D00023054831
:100FF00019460093FFF746FE0146084603B05DF828
:1010000004FB00BF30010180B1F900305A1C01D14E
:1010100018467047834201D1486870470C31F3E7A6
:10102000421C13B504460AD0FFF7EEFF431C06D15D
:1010300000232246034819460093FFF723FE02B01F
:1010400010BD00BF30010180B1F900305A1C01D140
:1010500018467047834201D1886870470C31F3E726
:10106000421C13B504460AD0FFF7EEFF431C06D11D
:1010700000232246034819460093FFF703FE02B0FF
:1010800010BD00BF300101806FF01C0070476FF091
:10109000150070470120704700207047704700001E
:1010A000F8B515460C468F18054EBC4205D014F80D
:1010B000011B304600F02CFEF7E72846F8BD00BFC4
:1010C000CC0F002038B511F001048DB205D00848CE
:1010D00000F0A8FC041E18BF0124EB0605D5044847
:1010E00000F0B0FC08B144F01004204638BD00BF49
:1010F000CC0F002010B5044604F060FA204610BD65
:1011000010B50C462AB1044800F0F0FD2070012013
:1011100010BD1046FCE700BFCC0F002038B51D46BF
:10112000074B04460360074B1B6833B9064800F0C1
:10113000FDFC2946044800F0C1FC204638BD00BF34
:101140002C6B0008880D0020CC0F00200020704779
:1011500000207047074A084913681844884283BF33
:10116000064B0C224FF0FF3010608CBF1A601846FF
:10117000704700BFFC03002000FC0720C40F0020C4
:10118000012070477047704708B5FFF7FBFF08BDA7
:1011900008B5FFF7F8FF08BD037803F00303012B40
:1011A00009D0037803F00302012A04D043F00203BC
:1011B00003700120704700207047037823F0030379
:1011C00043F00103037070473F2870B504462FDCDD
:1011D000184D55F820305A1C13D1022811DCFFF7A6
:1011E000B7FF034658B92046FFF7B0FF034630B9B2
:1011F000114E3378BFF35B8FDB0704D50F4B45F8F7
:101200002430184670BD3046FFF7C6FF0028F5D0E1
:101210004FF41653392238210848FFF77FFF304634
:10122000FFF7CBFF064A07490448FFF7A9FFE5E7A8
:101230000023E6E7FC020020400D0020440D0020C2
:10124000F80200209D10000838B505460024FFF77D
:10125000BBFF0B4B43F8254030B904F05BFE09237C
:1012600003604FF0FF3038BD03685B699847051E87
:1012700004DA6D4204F04EFE0560F2E72046F2E724
:10128000FC020020FFF7E0BF13B5CDE90021FFF716
:101290009BFFDDE9002140B904F03CFE0923036017
:1012A0004FF0FF34204602B010BD0368DB6898475A
:1012B000041EF7DA644204F02DFE0460F0E708B57E
:1012C000131E07DA04F026FE162303604FF0FF33E7
:1012D000184608BDFCD0FFF7D7FF40EAE073F7E7F8
:1012E00013B5CDE90021FFF76FFFDDE9002140B91B
:1012F00004F010FE092303604FF0FF34204602B0D3
:1013000010BD03689B689847041EF7DA644204F036
:1013100001FE0460F0E7002A08B503DBBDE80840E1
:10132000FFF7DEBF04F0F6FD162303604FF0FF3039
:1013300008BD13B5CDE90021FFF746FFDDE9002127
:1013400040B904F0E7FD092303604FF0FF34204665
:1013500002B010BD03681B699847041EF7DA6442A7
:1013600004F0D8FD0460F0E7FFF7E3BF10B5FFF726
:101370002BFF30B904F0CEFD092303604FF0FF309E
:1013800010BD03689B699847041E04DA644204F0A8
:10139000C1FD0460F2E70020F2E700000A4D0446B8
:1013A00008B52B68986804F0EBFB2B68D86804F04C
:1013B000E7FB0120FFF7DAFF0220FFF7D7FF0CB1B0
:1013C000FFF722FBFEE700BF0C0C00201FB50390C7
:1013D00004F0ECF8039A034620B901460090034854
:1013E000FFF750FC05B05DF804FB00BF1F01018052
:1013F00004F0E4B870470000084B094998684FF0C2
:101400000053C21802F16042126843F8042B8B4269
:10141000F7D1024B4FF000529A60704700ED00E0A8
:10142000C801002008B5FFF7E7FFFFF75DFD02F0F8
:10143000F3FBFFF7DFFF08BD2DE9F74F44680646D1
:1014400094F83A10002955D10168496888477168B5
:101450000546096A81424DD0206A4FF0000EE168CE
:10146000281AA66825620140374886428C4639D042
:1014700094F83BB00027A1FB0001D4E90A5ABBF164
:10148000000F46D0CBF1200820FA0BFCABF1200E68
:101490002D1801FA08F8ABF1200921FA0EFE4AEBEB
:1014A000010A4CEA080CCBF120084CEA0E0C21FA98
:1014B0000BFE0CFA09F90EFA0BF12CFA08F80CFAEB
:1014C0000BF041EA09012B1A41EA080100936AEB8B
:1014D00001030193DDE90023BB4208BFB2420CD2F5
:1014E000C4E90A23D4E90C0110EB0C0041EB0E0116
:1014F000C4E90C0103B0BDE8F08F1CF1010C009BA6
:101500004EF1000E9A1B019B63EB0703C4E90A230B
:10151000E8E732463B4603F0BFFE12EB050884467F
:101520008E4643EB0A09B94508BFB04502D2C4E96B
:101530000A89D7E710F1010C41F1000EB8EB060261
:1015400069EB0703E2E700BF40420F00824206D981
:101550008A420BD9884294BF0020012070478842FC
:1015600006D98A428CBF00200120704701207047B5
:10157000002070472DE9F74FD0F80480074698F80F
:101580003A30002B7ED198F83930002B7AD1FFF712
:1015900053FF7E683A6873680192002B64D0D6E9E5
:1015A0000C01D3E90023994208BF904205D3019B67
:1015B0005B6903B0BDE8F04F1847141AD6F81090D5
:1015C00063EB0105D6E90623AB4208BFA24206D36E
:1015D000B2682E4B9A4219D1A14528BFA146326A62
:1015E000019B9144F2681B6909EA020210460192CC
:1015F00098473B685B689847019A0146D8F82000F5
:10160000FFF7A4FF00283DD03B68D1E796F83B30B8
:10161000EBB1A3F1200CC3F1200205FA03F104FAA7
:1016200003F004FA0CFC24FA02F2194C002341EAFC
:101630000C0100194FF0000441EA0201134A44EB87
:10164000010103F029FE814528BF8146C7E7A2FBBF
:1016500004AB0F480021002302FB05BB1AEB00007E
:101660000A4A4BEB0101ECE7D8F81030D8F820001B
:10167000D8F80C201844019B10401B6903B0BDE84A
:10168000F04F184703B0BDE8F08F00BF40420F0095
:101690003F420F00436893F838202DE9F04F05468C
:1016A00085B0002A62D193F83A30002B5ED10368EE
:1016B0001B6898472B68DB69984703682BB91A4663
:1016C00019462C480093FFF7DDFA1F21012202FA88
:1016D00001F45FFA81FAA34202D00139F7D18A46B8
:1016E0004668321F1C2A05D9002323481A4619468A
:1016F0000093E8E71C4607270023204914F1FF3830
:1017000007FA02F7224643F1FF39C1FB0789404639
:1017100049464FF0000803F0BFFD6B682A68894610
:10172000834603935268C3E9008890470122039BD4
:10173000002102FA06F6186200206B68013EC3E938
:101740000A01C3E90C019C60284683F83BA01A8774
:1017500083F83A80C3E90367C3E906B9FFF76CFE73
:10176000284605B0BDE8F04FFFF704BF05B0BDE85F
:10177000F08F00BF0E0104800501048040420F007D
:1017800070B50446FFF7BEF92368DB6898476368C5
:1017900093F83A201AB1BDE87040FFF7BDB90122B5
:1017A00083F8392063685B68A3B12046FFF744FEE5
:1017B00065686E68D5E90C01D6E90023994208BF37
:1017C000904207D3F3686B602B68002BEAD0B068B7
:1017D0009847E7E763680022204683F83920FFF73F
:1017E000C9FED8E738B50446FFF754FFFFF78AF97A
:1017F0002046FFF721FE6368D3E90C45FFF78CF91B
:101800002046294638BD704700487047806B000865
:10181000024B1B680BB102481847704700040020B8
:10182000806B0008034B596A5A6A521A8242FBD3F2
:10183000704700BF000C004091FAA1F3B3FA83F3A4
:1018400091FAA1F130B55B000325B1FA81F184680A
:1018500005FA03F3490024EA03038A401343836033
:1018600030BD91FAA1F3B3FA83F391FAA1F130B547
:101870005B000325B1FA81F1C46805FA03F349005E
:1018800024EA03038A401343C36030BD012A02D017
:10189000022A18BF0022FFF7E4BF00002DE9F84339
:1018A00000F00F02C1F383183B4B1FFA80F9C0F31D
:1018B000031001F0070653F822700D46FEF796FF5D
:1018C000B8F10F0F394604460CBF03224246FFF71A
:1018D000B3FF022E2BD0032E5BD0711E4B424B4127
:1018E00097FAA7F2B2FA82F203202168013E520071
:1018F000012E00FA02F221EA020197FAA7F2B2FAE7
:1019000082F24FEA420203FA02F343EA0103236040
:1019100005D863682A074CBF3B43BB436360C5F3EC
:10192000011239462046BDE8F843FFF7AFBF19F072
:10193000080FC5F3832217D03B0A4FF00F0C93FA20
:10194000A3F1B1FA81F1406A93FAA3F38900B3FAE3
:1019500083F30CFA01F19B0020EA010102FA03F380
:101960000B4363620223BBE797FAA7F1B1FA81F157
:10197000036A0F20890000FA01F123EA010197FAB6
:10198000A7F3B3FA83F39B0002FA03F30B4323623A
:10199000E8E73346A4E700BFAC6B000800F00F0295
:1019A000C0F3031038B51E4B0C4653F82250FEF717
:1019B0001DFF95FAA5F2B2FA82F301685A000323DB
:1019C000934095FAA5F2B2FA82F20B405200D3404E
:1019D000013B012B1AD8E31E022B436809D82B4385
:1019E000032C43601AD101222946BDE83840FFF795
:1019F0004DBF23EA0503012C4360F4D0022C0BD029
:101A000029460022BDE83840FFF72BBF04F0FD0354
:101A1000012BE8D0052CF1D10222E5E7052CEEE7F9
:101A2000AC6B0008426870235343054AD358DA6907
:101A3000120701D508221A62D869C0F34010704716
:101A400018100020426870235343034AD358D869C2
:101A5000C0F3C010704700BF181000200346416853
:101A6000702210B44A431C681349545050189A68A5
:101A70004260DA6882601A69C2605A6902611A6A51
:101A800082610022A0F85220C261A0F85020A0F884
:101A90005A20A0F85820B3F91A20013205D10823A2
:101AA0005DF8044B436101F016BFB3F91830013300
:101AB0000CBF04230C23F3E7181000208160FFF70C
:101AC000CDBF0000184B98421FD0A3F54C4398425D
:101AD0001DD003F5806398421BD003F580639842C4
:101AE00019D003F58063984217D003F54443984218
:101AF00015D0A3F51C43984213D003F58063984298
:101B000014BF4FF0FF3007207047002070470120BE
:101B1000704702207047032070470420704705205B
:101B200070470620704700BF00100140F0B50E4618
:101B3000154689B0044660493046FFF771FA0746FA
:101B40005E492846FFF76CFA01463846FFF746FA29
:101B5000382E20600AD0392D08D057493820FFF799
:101B60005FFAB84220D15648FFF778F8012720687D
:101B7000544B98421AD103F594335A6C42F0100238
:101B80005A645B6C03F010030093009B4E4B984229
:101B900069D14E4B5A6C42F020025A645B6C03F0E0
:101BA00020030593059B18E00027E0E7484B984287
:101BB00044D003F5806398424BD0464B984260D0A6
:101BC000454B9842E2D1414B1A6C42F480121A64A0
:101BD0001B6C03F480130493049BFFF773FF3649D7
:101BE00060603046FFF7D8F928463449FFF7D4F94A
:101BF000701C03D001213046FFF7D0FE691C03D0D2
:101C000001212846FFF7CAFE00234FF41652204652
:101C1000268323626583C4E90223C4E90433FFF702
:101C20001DFF002F45D02D4B012221462C481A6064
:101C30004C2209B0BDE8F04004F0EAB9234B1A6C1D
:101C400042F400321A641B6C03F400330193019BCD
:101C50009CE71E4B1A6C42F480221A641B6C03F43E
:101C600080230293029B1F4B984214D1174B1A6C8E
:101C700042F080421A641B6C03F080430693069B7B
:101C8000ABE7124B1A6C42F400221A641B6C03F48B
:101C900000230393039B144B98429ED10B4B1A6C69
:101CA00042F000421A641B6C03F000430793079B49
:101CB00093E709B0F0BD00BFA06700089866000870
:101CC000A16A0008001001400014014000380240E1
:101CD00000440040004C004000500040880D0020AF
:101CE000CC0F002000780040007C004038B504464E
:101CF00045682046FFF796FE0028FAD07023034A75
:101D00006B43D358586AC0F3080038BD1810002040
:101D100070B505460C4646682846FFF793FE002836
:101D2000FAD07023034AC4F308047343D3589C6267
:101D300070BD00BF18100020DFF820D0002103E0A4
:101D4000074B5B58435004310648074B42189A42F0
:101D5000F6D301F013FEFEF799FA70470000082051
:101D60003C6D0008F8020020700C0020FEE7704770
:101D700008B5094B03201A6842F400721A601A6809
:101D800042F480721A6000F0C3FB0F20FEF70CFED5
:101D9000FFF7EDFF002008BD003C02407047000047
:101DA00010B50446002800F09980036C23B9436401
:101DB00080F83C30FFF7F2FF236CDB0600F18C80EB
:101DC000236C23F4885323F0020343F002032364BB
:101DD000434B5A6822F440325A605A6861680A4399
:101DE0005A60236821695A6822F480725A605A68DE
:101DF00042EA0122A1685A605A6822F040725A6091
:101E00005A680A43E1685A609A6822F400629A604C
:101E10009A680A4333499A60A26A8A4250D0996804
:101E200021F07061996099680A43E16A9A609A6842
:101E300022F040529A609A680A439A609A68A169AF
:101E400022F002029A609A6842EA41029A60226A8B
:101E5000002A3DD05A68616A42F4006201395A6032
:101E60005A6822F460425A605A6842EA41325A6023
:101E70000020DA6AE16922F470020139DA62DA6A72
:101E800042EA0152216BDA629A6822F400729A6087
:101E90009A6842EA412261699A609A6822F48062F3
:101EA0009A609A6842EA81229A606064236C23F007
:101EB000030343F001032364002384F83C3010BD86
:101EC0009A6822F070629A609A6822F04052B4E7F1
:101ED0005A6822F40062CAE70120EDE70120EEE72C
:101EE000002301400100000F002382B0019390F80D
:101EF0003C30012B4ED0012380F83C3003689A68B7
:101F0000D10705D59A68D20714D4002002B07047D3
:101F10009A68214942F001029A60204A1268B2FB95
:101F2000F1F202EB42020192019A002AEAD0019AF0
:101F3000013AF8E7026C22F4E06222F0010242F476
:101F4000807202645A68510505D5026C22F4405231
:101F500042F480520264026C12F4805202D0426C4D
:101F600022F006024264002280F83C206FF0220238
:101F70001A600B4A5268D20608D1986810F0405097
:101F8000C3D19A6842F080429A60BFE7054A934203
:101F9000BBD1F2E70220B9E740420F000404002061
:101FA000002301400020014003689A6870B556057F
:101FB00004460D460BD59B68D80508D5236C012037
:101FC00043F020032364002384F83C3070BDFEF707
:101FD000F1FC064623681A6892070CD56FF01202CE
:101FE0001A60226C42F4007222649A6812F0405F18
:101FF00013D00020EAE7691CEDD045B9236C03201B
:1020000043F004032364002384F83C30DEE7FEF74A
:10201000D1FC801BA842DDD9F0E7A269002AE8D1F3
:10202000DA6A12F4700F02D09B685B05E1D4236C6E
:1020300023F480732364206C10F48050D9D1236C76
:1020400043F001032364C1E70368D86C70470000C4
:102050000023F7B5019390F83C30012B6DD001239C
:1020600080F83C300C680368092C8E68A5B238D91A
:1020700005EB45024FF0070CDF681E3A0CFA02FC34
:1020800027EA0C07DF603B4FBC4225D1DA6842EA01
:102090000662DA604968062901EB810231D8053A07
:1020A0001F26596B964005FA02F221EA0601596390
:1020B000596B0A435A63304A934207D1122C3ED1DE
:1020C000D2F8043343F48003C2F80433002380F8C9
:1020D0003C30184603B0F0BDDF6806FA02F23A431E
:1020E000D7E704EB44024FF0070C1F690CFA02FC1F
:1020F00006FA02F227EA0C071F611F693A431A61C8
:10210000C8E70C294FF01F010BD8233A1E6B9140F2
:1021100005FA02F226EA01011963196B0A431A63F0
:10212000C9E7413ADE6A914005FA02F226EA010166
:10213000D962D96A0A43DA62BDE70220CAE70D4BC9
:102140009C4201D0112CC1D10C499C424A6842F4F6
:1021500000024A60BAD10A4B0A4A1B68B3FBF2F28A
:102160000A2353430193019B002BAFD0019B013BFA
:10217000F8E700BF120000100020014000230140DA
:102180000404002040420F0038B5044600286ED0F9
:1021900090F820300BB901F0D5FF2268136823F0C6
:1021A00002031360FEF706FC054623685A68910790
:1021B00051D41A6842F001021A60FEF7FBFB054693
:1021C00023685A68D20754D5227E0020012A1A6853
:1021D0000CBF42F0800222F080021A60627E012A67
:1021E0001A680CBF42F0400222F040021A60A27E40
:1021F000012A1A680CBF42F0200222F020021A6065
:10220000E27E012A1A680CBF22F0100242F010028E
:102210001A60227F012A1A680CBF42F0080222F0DD
:1022200008021A60627F012A1A680CBF42F0040299
:1022300022F004021A60D4E902210A4321690A4308
:1022400061690A43616801390A43DA610123606206
:1022500084F8203038BDFEF7ADFB401B0A28A4D916
:10226000636A43F400336362052384F8203001205D
:10227000F0E7FEF79FFB401B0A28A1D9F0E700001A
:1022800070B590F82030012B03D090F82030022B4D
:1022900074D103683C4A3D4893420CBF1346034641
:1022A000D3F80022834242F00102C3F800220CD18D
:1022B000D3F8002222F47C52C3F80022D3F8002283
:1022C000486A42EA0022C3F800224A690120D3F892
:1022D0001C52904025EA0005C443C3F81C52CD6946
:1022E00085BBD3F80C5203EBC202CE682540C3F87D
:1022F0000C528D8845EA06458E68C2F840520D881A
:1023000045EA0645C2F844528A696ABBD3F80422FA
:102310002240C3F804220A6952BBD3F814221440A5
:10232000C3F814420A6A012A04D1D3F81C221043CC
:10233000C3F81C02D3F80022002022F00102C3F8E7
:10234000002270BD012DDFD1D3F80C5203EBC20285
:102350000E680543C3F80C528D8845EA06458E6821
:10236000C2F840528D89CBE7D3F804220243D0E76C
:10237000D3F814220243C3F81422D3E7436A43F488
:10238000802343620120DCE7003400400064004009
:1023900070B590F820300446012BDDB220D10268E0
:1023A000022380F82030136823F001031360FEF746
:1023B00001FB064623685B6813F0010302D11D464A
:1023C00063620BE0FEF7F6FA801B0A28F2D9636A13
:1023D00043F400336362052384F82030284670BD3F
:1023E000436A012543F400234362F7E738B590F8C8
:1023F00020300446022B22D10268136843F0010307
:102400001360FEF7D7FA054623685A68D20708D545
:102410001A68002022F002021A60012384F820309A
:1024200038BDFEF7C7FA401B0A28EDD9636A43F4AA
:1024300000336362052384F820300120F0E7436A0B
:1024400043F480134362F8E710B5044670B1FFF718
:10245000CDFF204602F078F822680020136843F48C
:1024600000431360606284F8200010BD0120FCE787
:10247000F0B590F82040012C03D090F82040022CB9
:1024800042D10468A5686F0105D4A5682E0102D465
:10249000A568ED0032D5A0680125C0F30160854034
:1024A0001D6000F11803D1E9025715BB0D6847EA1A
:1024B00045551B01E55003010D6904EB0010C0F800
:1024C0008451097D012905D1D0F8841141F480712E
:1024D000C0F8841151682344C3F88C111268C3F802
:1024E0008821D0F8803143F00103C0F8803100200A
:1024F000F0BD4E683D4345EAC605DAE7436A43F45A
:10250000001343620120F3E7436A43F48023F8E7B2
:1025100007490302CA6803F4E06322F4E06212048C
:10252000120C134343F0BF6343F40033CB60704796
:1025300000ED00E02DE9F04F002385B0DFF8D081F9
:10254000714ADFF8D09101270C689F4007EA040523
:1025500037EA040440F0BE804C6824F0100ABAF157
:10256000020F16D14FEAD30E03F0070B4FF00F0CFA
:1025700000EB8E0E4FEA8B0BDEF820600CFA0BFCA2
:1025800026EA0C0C0E6906FA0BF646EA0C06CEF8A3
:1025900020604FEA430E4FF0030CD0F800B00AF170
:1025A000FF3A0CFA0EFCBAF1010F6FEA0C062BEAA7
:1025B0000C0B04F0030C01960CFA0EFC4CEA0B0C0D
:1025C000C0F800C015D8D0F808C006EA0C0CCE68D8
:1025D00006FA0EFA4AEA0C0CC0F808C0D0F804C09B
:1025E0002CEA0707C4F3001C0CFA03FC4CEA0707AB
:1025F0004760C768019E37408E6806FA0EF63E4374
:10260000C660E60066D5D8F8446023F0030703F0FF
:10261000030C4FF00F0E46F4804607F180474FEA57
:102620008C0CC8F8446007F59C37D8F8446006F471
:1026300080460396039E0EFA0CF6D7F808A02AEA05
:10264000060E324EB0424CD006F58066B0424AD0FB
:1026500006F58066B04248D006F58066B04246D0A6
:1026600006F58066B04244D0484544D006F5006681
:10267000B04242D006F58066B04240D006F5806692
:10268000B0423ED006F58066B0420CBF09260A264D
:1026900006FA0CF614F4803F46EA0E06BE606FEAB6
:1026A000050716680CBF3E402E4314F4003F166029
:1026B00056680CBF3E402E4314F4801F5660966847
:1026C0000CBF3E402E43A4029660D66854BF3E40E5
:1026D0002E43D6600133102B7FF435AF05B0BDE833
:1026E000F08F0026D4E70126D2E70226D0E70326A2
:1026F000CEE70426CCE70526CAE70626C8E7072664
:10270000C6E70826C4E700BF003C014000000240C5
:1027100000380240001402402DE9F04F00228E469E
:10272000DFF828914749DFF828A1DFF828B14FF0FA
:10273000010808FA02FC3CEA0E036BD1032302FAFB
:1027400008F5046802F0070603FA05F522FA03F714
:10275000B60024EA050400EB870704603C6A2346C0
:102760000F2404FA06F623EA0606374B3E62984227
:10277000866826EA050686606FEA0C06476827EA3F
:102780000C074760C76827EA050502F00307C56024
:1027900022F003054FEA870705F1804504FA07F4A4
:1027A00005F59C35D5F808C004EA0C0C37D003F5C4
:1027B0008063984235D003F58063984233D003F5A7
:1027C0008063984231D003F5806398422FD048450A
:1027D0002FD050452FD058452FD003F58053984225
:1027E0002DD003F5806398420CBF09230A23BB4018
:1027F00063450FD1AB6823EA0404AC600B68334037
:102800000B604B6833404B608B6833408B60CB6808
:102810001E40CE600132102A89D1BDE8F08F00231E
:10282000E5E74346E3E70223E1E70323DFE7042389
:10283000DDE70523DBE70623D9E70723D7E70823EE
:10284000D5E700BF003C01400000024000140240F8
:1028500000180240001C0240194B37B51A6C194C85
:1028600042F080521A641B6C03F080530193019B69
:10287000236843F480332360FEF79CF805466368C1
:10288000DA030CD523680F4D43F400332360FEF7C1
:1028900091F804466B689B030AD5002006E0FEF71A
:1028A00089F8401BB0F57A7FE9D9032003B030BD29
:1028B000FEF780F8001BB0F57A7FEBD9F5E700BF93
:1028C00000380240007000402DE9F341044618B979
:1028D000012002B0BDE8F0810368D80710D4236856
:1028E000990761D42368190700F1A88023685A0763
:1028F00000F1C980A269002A40F032810020E8E797
:10290000954B9A6802F00C02042A07D09A6802F0EC
:102910000C02082A0AD15A68520207D58E4B1B684E
:102920009B03DCD56368002BD9D1D1E76268B2F58F
:10293000803F11D11A6842F480321A60FEF73AF8EB
:10294000854E054633689F03C9D4FEF733F8401B14
:10295000C828F7D90320BCE77F4D2B6892B923F430
:1029600080332B602B6823F480232B60FEF722F842
:1029700006462B689803B2D5FEF71CF8801BC828C2
:10298000F7D9E7E7B2F5A02F07D143F480232B60F6
:102990002B6843F480332B60D0E723F480332B6023
:1029A0002B6823F48023F6E76B4B9A6812F00C0F28
:1029B00007D09A6802F00C02082A12D15A68510214
:1029C0000FD4654B1A68920703D5E268012A7FF499
:1029D0007FAF1A68216922F0F80242EAC1021A6048
:1029E00080E7E268C2B11A685B4D42F001021A60EA
:1029F000FDF7E0FF06462B689F0707D52B68226985
:102A000023F0F80343EAC2032B606BE7FDF7D2FF24
:102A1000801B0228EFD99DE71A684F4E22F0010271
:102A20001A60FDF7C7FF0546336898077FF55AAF70
:102A3000FDF7C0FF401B0228F6D98BE76369464DBE
:102A400083B16B6F43F001036B67FDF7B3FF06467D
:102A50006B6F9B073FF54AAFFDF7ACFF801B022869
:102A6000F6D977E76B6F23F001036B67FDF7A2FFE1
:102A700006466B6F9F077FF539AFFDF79BFF801B05
:102A80000228F6D966E7344B1A6CD00027D41A6CAA
:102A9000012742F080521A641B6C03F080530193AB
:102AA000019B2E4D2B68D9051BD5A3682A4D012B00
:102AB00027D12B6F43F001032B6741F28838FDF7D4
:102AC00079FF254E0546336F9B073FD5002F3FF416
:102AD00011AF214A136C23F0805313640AE70027D7
:102AE000DFE72B6843F480732B60FDF763FF064636
:102AF0002B68DA05D9D4FDF75DFF801B6428F7D970
:102B000028E7ABB92B6F41F2883823F001032B671C
:102B10002B6F23F004032B67FDF74CFF06462B6F4A
:102B20009807D3D5FDF746FF801B4045F7D911E73D
:102B3000052B2B6F03D143F004032B67B9E723F078
:102B400001032B672B6F23F00403B5E7FDF732FF7A
:102B5000401B4045B7D9FDE60038024000700040F8
:102B6000244DAB6803F00C03082B3FF4B1AE2B6887
:102B7000022A23F080732B602FD1FDF71BFF06463E
:102B80002B68990123D4D4E907321343626A43EADC
:102B90008213E26A43EA0263226B43EA0273A26A87
:102BA0005208013A43EA02436B602B6843F080739A
:102BB0002B60FDF7FFFE0F4D04462B689A013FF591
:102BC0009DAEFDF7F7FE001B0228F6D9C2E6FDF721
:102BD000F1FE801B0228D3D9BCE6FDF7EBFE0446CC
:102BE0002B689B017FF58AAEFDF7E4FE001B0228EF
:102BF000F6D9AFE600380240134908B58B6803F0F8
:102C00000C03042B1BD0082B1BD14A684B68496866
:102C100002F03F0213F48003C1F388111ABF0B487E
:102C200000230B48A1FB000102F036FB064B5B685A
:102C3000C3F3014301335B00B0FBF3F008BD03486D
:102C4000FCE70348FAE700BF0038024000127A00B0
:102C50000024F4002DE9F0410D46044610B901208E
:102C6000BDE8F081454A136803F00F038B4227D378
:102C7000226897072FD4D00743D4404A136803F043
:102C80000F03AB4266D8226851076FD4130707D5EC
:102C90003B4A2169936823F4604343EAC10393608C
:102CA000FFF7AAFF364B374A9B68C3F30313D35C85
:102CB000D840354B18600F20FDF776FE0020CFE797
:102CC000136823F00F030B431360136803F00F0323
:102CD0008B42C4D1CCE712F0040F294B03D0996882
:102CE00041F4E0519960160703D5996841F46041B9
:102CF00099602349A0688B6823F0F00303438B603D
:102D0000B9E761681E4B01291A681BD112F4003F14
:102D1000A5D09A6841F28838194F22F003020A437D
:102D20009A60FDF747FE0646BB68626803F00C0335
:102D3000B3EB820FA1D0FDF73DFE801B4045F3D9D8
:102D400003208DE7022902D112F0007FE0E712F0A4
:102D5000020FDDE7136823F00F032B4313601368A2
:102D600003F00F03AB427FF47AAF8CE70449E068CD
:102D70008B6823F4E05303438B6087E7003C0240F9
:102D800000380240FC6B000804040020044B054A94
:102D90009B68C3F38223D35C034A1068D840704712
:102DA000003802400C6C000804040020044B054A63
:102DB0009B68C3F34233D35C034A1068D840704722
:102DC000003802400C6C0008040400200F2303604C
:102DD0000B4B9A6802F0030242609A6802F0F0021C
:102DE00082609A6802F4E052C2609B68DB0803F4D8
:102DF000E0530361034B1B6803F00F030B60704744
:102E000000380240003C024003682DE9F74313F00C
:102E1000010604460BD0BA4A916821F40001916082
:102E2000466B91683143B6FA86F67609916013F4E1
:102E3000002512D0B249E56BD1F88C20B5F5801F82
:102E400022F4401208BF012642EA050216BFB5FA75
:102E500085F500256D09C1F88C20D90210D5A84848
:102E6000216CD0F88C20B1F5800F22F4400242EAA8
:102E70000102C0F88C2000F0A881002908BF0125BC
:102E800013F0807F18BF01269A0631D59C4B9D4FC9
:102E90001A6C42F080521A641B6C03F08053019349
:102EA000019B3B6843F480733B60FDF783FD8046E4
:102EB0003B68DB0540F18B81914F3B6F13F440730E
:102EC00040F09081236B03F44072B2F5407F8C4A4E
:102ED00040F0AE81916823F0704021F4F81120F4A5
:102EE000407001439160C3F30B03116F0B431367F1
:102EF0002368DA060CD5824AD2F88C1021F0807152
:102F0000C2F88C10D2F88C10A06B0143C2F88C1060
:102F10005F0408D57A49606ED1F8902022F44032DF
:102F20000243C1F89020180408D57549A06ED1F865
:102F3000902022F440220243C1F89020D90308D502
:102F40006F49E06ED1F8902022F440120243C1F89C
:102F500090209A0308D56A49206FD1F8902022F476
:102F600040020243C1F890205F0608D56449606CB6
:102F7000D1F8902022F003020243C1F890201806F5
:102F800008D55F49A06CD1F8902022F00C020243D2
:102F9000C1F89020D90508D55949E06CD1F89020A6
:102FA00022F030020243C1F890209A0508D5544916
:102FB000206DD1F8902022F0C0020243C1F8902089
:102FC0005F0508D54E49606DD1F8902022F440721B
:102FD0000243C1F89020180508D54949A06DD1F8E1
:102FE000902022F440620243C1F89020D90408D511
:102FF0004349E06DD1F8902022F440520243C1F8D9
:1030000090209A0408D53E49206ED1F8902022F4F1
:1030100040420243C1F890205F0208D53849A06FB2
:10302000D1F8902022F080620243C1F890209802EB
:103030000CD53348E16FD0F89020B1F1006F22F049
:10304000006208BF01250A43C0F8902013F0080F62
:1030500018BF0125590308D52949606FD1F8902080
:1030600022F040720243C1F890201A0209D5244987
:10307000D4F88000D1F8902022F080520243C1F8A9
:1030800090205F0109D51E49D4F88400D1F8902022
:1030900022F000520243C1F89020180109D51849C6
:1030A000D4F88800D1F88C2022F000720243C1F8D5
:1030B0008C20D90040F13E81114A012ED4F88C10A9
:1030C000D2F88C3023F0806343EA0103C2F88C30DD
:1030D00000F0B280012D76D1094D2B682E4623F0E9
:1030E00080532B60FDF766FC07462B689B0000F1C0
:1030F0002E812268150307D5E36B4BB104E000BFB6
:103100000038024000700040D0021CD5236CD3B9B7
:10311000D6F88830D6F8881003F4403301F0E04147
:103120000B43616943EA8113A16943EA0163C6F86D
:103130008830D6F88C30A16A23F4F853013943EA79
:103140000123C6F88C30910215D5E36FB3F1006FFF
:1031500011D18649D1F88830D1F8880003F0706326
:1031600000F0E0400343606943EA8013206A43EAC9
:103170000043C1F88830120719D57C4AD2F888106C
:10318000D2F8883001F0706103F440330B43616979
:1031900043EA8113E16943EA0173C2F88830D2F847
:1031A0008C30E16A23F440330B43C2F88C306F4C0F
:1031B000236843F080532360FDF7FCFB054623683A
:1031C0009B0040F1CB80002009E0012658E6FDF786
:1031D000F1FBA0EB080064287FF66AAE032003B081
:1031E000BDE8F083226B02F440729A423FF46AAE6B
:1031F0003B6F3A6F23F4407342F480323A673A6F80
:1032000022F480323A673B673B6FD8077FF55AAEAE
:10321000FDF7D0FB41F2883980463B6F99073FF5B7
:1032200051AEFDF7C7FBA0EB08004845F5D9D5E73F
:10323000916821F4F81155E64C4E336823F0806311
:103240003360FDF7B7FB074633681A0178D422686C
:10325000D30712D5636B83B9D6F88430D6F88410BF
:1032600003F4403301F070610B43616843EA81135A
:10327000A16843EA0173C6F88430170303D5E36BF2
:10328000B3F5801F05D0D6021ED5236CB3F5800F91
:103290001AD13649D1F88430D1F8840003F4403390
:1032A00000F0E0400343606843EA8013E06843EACB
:1032B0000063C1F88430D1F88C00636A20F01F00ED
:1032C000013B0343C1F88C30D00111D52749D1F817
:1032D0008430D1F8840003F0706300F0E0400343D1
:1032E000606843EA8013206943EA0043C1F88430F0
:1032F00091010DD5236962681B0443EA8213E268D9
:1033000043EA0263A26843EA0273184AC2F88430AF
:10331000164E336843F080633360FDF74BFB07467E
:1033200033681A013FF5D6AEFDF744FBC01B642895
:10333000F6D953E7012E3FF47FAFB3F1007FC7E624
:10334000FDF738FBC01B64287FF67EAF46E7FDF72C
:1033500031FBC01B64287FF6C8AE3FE7FDF72AFBB0
:10336000401B64287FF62BAF38E700BF00380240CF
:1033700070470000304A0368904212D0B0F1804F8D
:103380000FD0A2F57C4290420BD002F580629042B1
:1033900007D002F58062904203D002F57842904255
:1033A00019D14A6823F070031343234A904229D06D
:1033B000B0F1804F26D0A2F57C42904222D002F597
:1033C000806290421ED002F5806290421AD002F5CF
:1033D0007842904216D0194A904213D002F580628A
:1033E00090420FD002F5806290420BD0A2F5983245
:1033F000904207D002F58062904203D002F58062CD
:10340000904203D123F44073CA6813434A6923F0FE
:103410008003134303608B68C3620B688362064BAF
:10342000984203D003F58063984201D10B6903638E
:1034300001234361704700BF00000140004001408C
:1034400010B50446A0B190F83D3003F0FF021BB95F
:1034500080F83C20FFF78CFF02232068211D84F8B0
:103460003D30FFF787FF0123002084F83D3010BD79
:103470000120FCE710B50124036A8C4002FA01F137
:1034800023EA04030362036A0B43036210BD0000D6
:1034900010B5044601220068FFF7ECFF2368084AD4
:1034A000934203D002F58062934203D15A6C42F4F6
:1034B00000425A641A68002042F001021A6010BDEE
:1034C0000000014070472DE9F041DDF81880044606
:1034D0000E4615461F462268D36936EA03030CBF21
:1034E00001230023AB4201D0002017E0B8F1FF3FD9
:1034F000F2D0B8F1000F13D1236803201A6822F428
:10350000D0721A609A6822F001029A60202384F82F
:10351000693084F86A30002384F86830BDE8F081AF
:10352000FDF748FAC01B4045D5D3E5E738B5C26979
:1035300004460368816800691D68014360690143AE
:103540009E4811432840256A0143E0681960596884
:1035500021F4405101435960A1699868294320F43E
:1035600030600143996096498B421DD101F5943139
:10357000D1F8901001F003010139022900F2FF8017
:103580009048B2F5004F415C40F0AB80082900F252
:10359000A580DFE811F0E200F700FD00A3000901BB
:1035A000A300A300A300320087498B4207D101F595
:1035B000FA318648D1F8901001F00C01E1E7844916
:1035C0008B421FD101F5F831D1F8901001F0300194
:1035D000202900F0DA800AD8002900F0BB801029E9
:1035E00000F0DF80B2F5004F78D00120C6E030292E
:1035F000F8D1B2F5004F40F0A8806268530803F597
:103600008033CBE073498B4210D101F5F631D1F80C
:10361000901001F0C001802900F0B78004D8002983
:1036200000F098804029DBE7C029E1E76A498B4236
:1036300013D101F5F431D1F8901001F44071B1F5D6
:10364000007F00F0A28005D8002900F08380B1F54A
:10365000807FC5E7B1F5407FCAE760498B4213D14F
:1036600001F59231D1F8901001F44061B1F5006F8D
:1036700000F08B8005D8002900F08180B1F5806FC3
:10368000AEE7B1F5406FB3E755498B4211D101F573
:10369000E031D1F8901001F44051B1F5005F74D0E1
:1036A00004D8002956D0B1F5805F99E7B1F5405FA5
:1036B0009EE74C498B4295D101F5DE31D1F890104F
:1036C00001F44041B1F5004F5FD004D8002941D04A
:1036D000B1F5804F84E7B1F5404F89E70120002321
:1036E00045E0082981D801A252F821F011370008DD
:1036F000293700082F370008EB3500084537000848
:10370000EB350008EB350008EB3500084B370008B7
:10371000FFF73CFBD4E9002300EB5300B0FBF3F0D0
:1037200080B2D060002029E0FFF740FBF2E761683B
:103730004A0802F5740202F51052B2FBF1F292B29D
:10374000DA60EFE7FFF758FAE4E761684A0802F544
:103750000042F2E7B2F5004FDAD1FFF717FB6368DA
:103760005A0802EB4000B0FBF3F39BB2002023F0B9
:103770000F02C3F3420321681343CB6038BDB2F597
:10378000004FD1D1FFF712FBE9E7B2F5004FCED1E0
:103790006268530803F1F47303F59043B3FBF2F34B
:1037A000E3E7B2F5004FCDD1FFF726FA61684A088A
:1037B00002EB4003B3FBF1F3D7E700BFF369FFEF80
:1037C00000100140EC6B000800440040EF6B000863
:1037D00000480040004C00400050004000140140F0
:1037E00000780040007C0040436ADA0710B506D537
:1037F0000168846A4A6822F4003222434A609C07C6
:1038000006D50168C46A4A6822F4803222434A60BD
:10381000590706D50168046B4A6822F480222243C6
:103820004A601A0706D50168446B4A6822F40042D0
:1038300022434A60DC0606D50168846B8A6822F45C
:10384000805222438A60990606D50168C46B8A6853
:1038500022F4005222438A605A0610D50168046C93
:103860004A68B4F5801F22F4801242EA04024A60DA
:1038700005D14A68446C22F4C00222434A601B0608
:1038800006D50268816C536823F400230B43536010
:1038900010BD37B500250446C566FDF78BF82268D4
:1038A00003461268120709D42023002084F86930E7
:1038B00084F8680084F86A3003B030BD6FF07E424F
:1038C0004FF40011204600922A46FFF7FCFD002825
:1038D000EAD00320F0E710B5044660B390F86930F1
:1038E00003F0FF021BB980F86820FFF7EBFD2268A8
:1038F0002423204684F86930136823F00103136001
:10390000FFF714FE012816D0636A13B12046FFF7B3
:103910006BFF236820465A6822F490425A609A68E6
:1039200022F02A029A601A6842F00102BDE81040B3
:103930001A60FFF7AEBF012010BD10B50223AAB078
:103940000F220024072101A8CDE901234FF4A05341
:10395000CDE903434FF480530593FFF77BF958B942
:103960004FF40013259006A80693FFF74DFAB0FA1E
:1039700080F040092AB010BD2046FBE70E49002028
:10398000D1F8883043F47003C1F888300B4B1A68C3
:1039900042F001021A6098601A6822F0847222F4E0
:1039A00080321A60064A5A601A6822F480221A602D
:1039B000D860044B8B60704700ED00E00038024097
:1039C00010300024000000081E4B00284FF00401B6
:1039D0001A6C42F0805200B51A6491B01B6C03A8B7
:1039E00003F080530193019B174B1A6842F4404245
:1039F0001A604FF480021B6803F440430293029B59
:103A00004FF0010303930CBF4FF480334FF4A02316
:103A100004930223CDE90932D8220D93CDE90B128C
:103A20000922CDE90E23FEF74FFF18B1002011B097
:103A30005DF804FBFEF710FF0028F7D1FFF77DFFCC
:103A4000F5E700BF0038024000700040164B082028
:103A500010211A6C42F0805200B51A648FB01B6CB2
:103A60000122059103F08053049200220093009BF1
:103A70000223029201930B93CDE90732D822CDE9BC
:103A80000902092201A8CDE90C23FEF71DFF18B198
:103A900000200FB05DF804FBFEF7DEFE0028F7D132
:103AA000FFF74BFFF5E700BF0038024008B50120E3
:103AB000FFF78AFF28B9FFF7C9FF10B90148FDF7E2
:103AC000CDF808BDD66A0008174A1849936803F074
:103AD0000C03042B10B50DD0082B0DD0144B0B602C
:103AE000114B144A9B68C3F30313D25C0B68D34099
:103AF0000B6010BD104BF2E75468506863025268C7
:103B000000F03F0048BF0C4BC2F3881258BF084B6F
:103B1000B3FBF0F35343044A5268C2F3014201324B
:103B20005200B3FBF2F3DAE700380240040400204D
:103B30000024F400FC6B000800127A00074B084ACE
:103B400013601A69910707D5DA68920704D56FF0F8
:103B500002021A61FDF75CBE704700BF000C004016
:103B60009813002000487047146C000830B589B0E5
:103B7000234C01A903A8FFF729F9FFF707F9214B07
:103B800001901A6C42F008021A641A6C02F00802E2
:103B90000292029A1A6A42F008021A621A6A22F023
:103BA00008021A62A3F50B33069A23604FF0FF3325
:103BB000E360154B0ABB0025B0FBF3F0013825612B
:103BC000A56060600E48C4E90555FFF739FC0F4B4E
:103BD0000F4A9B68C3F80821BFF34F8F0D4B4FF47A
:103BE00080225A6006482946FFF752FC2268D368B3
:103BF00023F00203D36009B030BD4000DBE700BF13
:103C0000981300200038024040420F0000ED00E011
:103C10003D3B000800E100E0044800210268D36851
:103C200023F00203D360FFF733BC00BF98130020DA
:103C3000014B586A704700BF000C0040054B6FF005
:103C400002021B6858631A61DA6842F00202DA6005
:103C5000704700BF98130020064B6FF002021B68EC
:103C60001A615A6942F002025A61DA6842F00202AD
:103C7000DA60704798130020034B1A68D36823F06A
:103C80000203D360704700BF98130020024B6FF00F
:103C900002021B681A6170479813002010B584B0A7
:103CA00001902949019A13465B0013449B000B4481
:103CB00008331B78002B2DD15020FDF787FB0346DE
:103CC0001C462149019A13465B0013449B000B4498
:103CD000B3F9003019462046FCF746FB1A49019A11
:103CE00013465B0013449B000B4404331C601649CD
:103CF000019A13465B0013449B000B4408330322D4
:103D00001A70019A13465B0013449B000E4A134439
:103D1000039315E00C49019A13465B0013449B0082
:103D20000B4408331B78032B08D1019A13465B0020
:103D300013449B00044A1344039301E000230393BC
:103D4000039B184604B010BD0804002084B0039003
:103D50000B4601928DF80B3000BF04B0704700B5E0
:103D600089B00390029113468DF80730039B0593A9
:103D7000059B002B0BD0059B5B681846FCF7C8FA27
:103D8000F0EE407AB7EEE77A8DED067B05E04FF076
:103D900000024FF00003CDE906230299DDE9062376
:103DA000C1E9002300BF09B05DF804FB82B00190B7
:103DB00000BF02B0704782B0019000BF02B07047F0
:103DC00000B585B00190019B0393039B002B0ED09F
:103DD000039B5B68002B04D01A68043212681846F3
:103DE0009047039B00225A60039B00221A7200BF77
:103DF00005B05DF804FB000030B5A3B003468DF8B4
:103E00000730C74B1EAC0FCB84E80F00C54B1AAC74
:103E10000FCB84E80F00C44B0AAC1D460FCD0FC476
:103E20000FCD0FC40FCD0FC495E80F0084E80F002D
:103E3000BE4B02AC1D460FCD0FC495E80F0084E8C1
:103E40000F009DF80730013BB94AD35C002B40F0CE
:103E50005A819DF807305A1EB64913469B001344F9
:103E6000DB000B44183300221A709DF807305A1EED
:103E7000B04913469B001344DB000B441933002266
:103E80001A709DF807305A1EAA4913469B00134426
:103E9000DB000B441A3300221A709DF807305A1EBB
:103EA000A44913469B001344DB000B441B3301223F
:103EB0001A709DF807305A1E9E4913469B00134402
:103EC000DB000B441C3300221A709DF807305A1E89
:103ED000984913469B001344DB000B441D3300221A
:103EE0001A709DF80730032B00F09880032B00F325
:103EF000DD80012B02D0022B48D0D7E09DF807309F
:103F00005A1E8C4913469B001344DB000B448A4A1B
:103F10001A609DF807305A1E1E99864813469B006A
:103F20001344DB000344083319609DF807305A1E20
:103F30001A99804813469B001344DB0003440C335A
:103F400019609DF807305A1E18997A4813469B004D
:103F50001344DB000344103319609DF807305A1EE8
:103F60000399744813469B001344DB000344143345
:103F700019609DF807305A1E6E4913469B00134482
:103F8000DB000B44043306221A6091E09DF80730F1
:103F90005A1E684913469B001344DB000B44674AD2
:103FA0001A609DF807305A1E1E99624813469B00FE
:103FB0001344DB000344083319609DF807305A1E90
:103FC0001A995C4813469B001344DB0003440C33EE
:103FD00019609DF807305A1E0F99564813469B00EA
:103FE0001344DB000344103319609DF807305A1E58
:103FF0000499504813469B001344DB0003441433D8
:1040000019609DF807305A1E4A4913469B00134415
:10401000DB000B44043306221A6049E09DF80730A8
:104020005A1E444913469B001344DB000B44444A88
:104030001A609DF807305A1E1E993E4813469B0091
:104040001344DB000344083319609DF807305A1EFF
:104050001A99384813469B001344DB0003440C3381
:1040600019609DF807305A1E0F99324813469B007D
:104070001344DB000344103319609DF807305A1EC7
:1040800004992C4813469B001344DB00034414336B
:1040900019609DF807305A1E264913469B001344A9
:1040A000DB000B44043306221A6001E0002333E0F6
:1040B0009DF807305A1E13469B001344DB001D4A2F
:1040C00013441846FEF760F80346002B01D0002386
:1040D00022E09DF807305A1E13469B001344DB0074
:1040E000144A13441846FEF753F90346002B01D037
:1040F000002311E09DF80730013B0D4AD25C0132EC
:10410000D1B20B4AD1549DF807305A1E13469B007A
:104110001344DB00074A1344184623B030BD00BFE8
:104120001C6C00082C6C00083C6C00087C6C0008BF
:10413000100E0020980D0020006400400068004030
:104140000034004000B593B001900DAB00221A601E
:104150005A609A60DA601A61019B1B687C4A93423C
:1041600031D17C4B1B6801337A4A1360794B1B6851
:10417000012B0BD1784B1B6C774A43F0007313640F
:10418000754B1B6C03F000730C930C9B724B1B6BF9
:10419000714A43F0020313636F4B1B6B03F002037E
:1041A0000B930B9B4FF440730D9302230E9300234C
:1041B0000F9303231093092311930DAB19466748FE
:1041C000FEF7B8F9BFE0019B1B68654A93425BD1DB
:1041D000644B1B680133634A1360624B1B68012BFD
:1041E0000BD15D4B1B6C5C4A43F4005313645A4B78
:1041F0001B6C03F400530A930A9B5B4B1B6801334F
:10420000594A1360584B1B68012B0BD1524B1B6C46
:10421000514A43F0806313644F4B1B6C03F080637F
:104220000993099B4B4B1B6801334A4A1360494B66
:104230001B68012B0BD1484B1B6C474A43F00073A2
:104240001364454B1B6C03F000730893089B424BAF
:104250001B6B414A43F0020313633F4B1B6B03F09C
:1042600002030793079B4FF440530D9302230E93D1
:1042700000230F9303231093092311930DAB1946C9
:104280003648FEF757F95EE0019B1B68374A9342B8
:1042900059D1344B1B680133324A1360314B1B68D0
:1042A000012B0BD12C4B1B6C2B4A43F40053136492
:1042B000294B1B6C03F400530693069B2A4B1B6887
:1042C0000133294A1360284B1B68012B0BD1224B69
:1042D0001B6C214A43F0806313641F4B1B6C03F07B
:1042E00080630593059B1B4B1B680133194A1360C0
:1042F000184B1B68012B0BD1174B1B6C164A43F054
:1043000000731364144B1B6C03F000730493049B41
:10431000114B1B6B104A43F0020313630E4B1B6BD4
:1043200003F002030393039B18230D9302230E93C0
:1043300000230F93032310930B2311930DAB194606
:104340000648FEF7F7F800BF13B05DF804FB00BFA6
:10435000006400408C0D0020003802400004024040
:1043600000680040900D0020940D002000340040B3
:1043700010B58CB00446084611461A4623468DF8FF
:1043800007300346ADF804300B46ADF80230134653
:10439000ADF800309DF807305A1E9DF84010434894
:1043A0001346DB009B1A5B0003440B441B78002B75
:1043B00078D1BDF804300293BDF802300393BDF804
:1043C00000300493BDF8383005939DF83C30002B45
:1043D00001D0012300E0002306939DF840300793AD
:1043E0009DF84430002B01D0012300E00023089306
:1043F0009DF84830002B01D0012300E000230993F1
:104400009DF84C30002B14BF01230023DBB20A932C
:104410000E230B939DF80730022B1DD1BDF80430FD
:10442000002B19D1BDF80230002B15D1BDF800309A
:10443000002B11D1BDF83830002B0DD19DF8403044
:10444000002B09D19DF84430002B05D19DF8483050
:10445000012B01D10E2307939DF807305A1E1346F6
:104460009B001344DB00124A134402AA114618466B
:10447000FDF706FF9DF807305A1E9DF840100B48C7
:104480001346DB009B1A5B0003440B441B7801338B
:10449000DCB206481346DB009B1A5B0003440B4466
:1044A00022461A7000BF0CB010BD00BF140E0020D1
:1044B000980D002000B58DB00390029101928DF807
:1044C000033000230493039B002B29D0039B0B9301
:1044D0009DF80330002B04D1019B05930023079323
:1044E00003E0019B0693042307939DF83830002BCB
:1044F00001D1002300E0022308939DF83C3009938A
:1045000000238DF8283004AB05A9029A0B98FDF71B
:10451000AFFF0346002B01D0002302E0012300E09F
:10452000002318460DB05DF804FB00B585B001907E
:10453000019B002B04D0019B03930398FDF784FF9C
:1045400000BF05B05DF804FB00B583B00190019B8E
:104550001B68404A93420BD13F4B1B6C3E4A23F0F1
:10456000007313644FF440713C48FEF7D5F86DE0DA
:10457000019B1B683A4A934232D13A4B1B68013B7C
:10458000384A1360374B1B68002B05D1324B1B6C2C
:10459000314A23F400531364334B1B68013B324A06
:1045A0001360314B1B68002B05D12B4B1B6C2A4A27
:1045B00023F0806313642D4B1B68013B2B4A13606F
:1045C0002A4B1B68002B05D1234B1B6C224A23F07E
:1045D000007313644FF440512048FEF79DF835E016
:1045E000019B1B68224A934230D11E4B1B68013B42
:1045F0001C4A13601B4B1B68002B05D1164B1B6C10
:10460000154A23F400531364174B1B68013B164AE9
:104610001360154B1B68002B05D10F4B1B6C0E4A0A
:1046200023F080631364114B1B68013B0F4A136036
:104630000E4B1B68002B05D1074B1B6C064A23F061
:104640000073136418210548FEF766F800BF03B035
:104650005DF804FB006400400038024000040240A2
:1046600000680040900D0020940D00208C0D00206B
:10467000003400400000000084B00190019B1A68E3
:10468000214BA3FB0213D11A49080B441B0C1F49F1
:1046900001FB03F3D31A44F2A71202FB03F30393C3
:1046A000019B1A68184BA3FB0213D21A5208134439
:1046B0001B0C40F6143202FB03F30293039A029B95
:1046C0009A4208D2039A029BD21A6FF00043134415
:1046D000019A136004E0039A029BD21A019B1A60AC
:1046E000019B1B6807EE903AB8EE677B9FED046B69
:1046F00027EE067BB0EE470B04B07047AFF30080A7
:10470000000020000000003EBD169C061DF30100C5
:1047100000B58BB07C4B93ED007BB0EE470B00F007
:10472000ABFBB0EE407B8DED067B9DED067BB0EEE6
:10473000470B00F01DFA0346002B08D19DED067BC8
:10474000B0EE470B00F0F4F90346002B06D04FF013
:1047500000024FF00003CDE906230BE09DED067B40
:104760009FED611BB0EE470B00F05EFBB0EE407BAF
:104770008DED067B9DED067BB5EEC07BF1EE10FA6C
:104780000DD59DED067BB1EE477BFCEEC77BCDEDF5
:10479000037A9DF80C30DBB25B42DBB208E09DEDA2
:1047A000067BFCEEC77BCDED037A9DF80C30DBB2C7
:1047B0008DF82730554BDB681846FFF7F7FA534B57
:1047C000DB6806A907221846FFF7C9FA9DED067BAC
:1047D0009FED476B27EE067B9FED476B27EE066B41
:1047E0009FED475B86EE057B9FED456B37EE067BC5
:1047F000B0EE470B00F040FBB0EE407B8DED067B4A
:104800009DED067BB0EE470B00F0B2F90346002B9E
:1048100008D19DED067BB0EE470B00F089F9034609
:10482000002B06D04FF000024FF00003CDE9062325
:104830000BE09DED067B9FED2C1BB0EE470B00F0CF
:10484000F3FAB0EE407B8DED067B9DED067BB5EE79
:10485000C07BF1EE10FA0DD59DED067BB1EE477BE6
:10486000FCEEC77BCDED037A9DF80C30DBB25B42EA
:10487000DBB208E09DED067BFCEEC77BCDED037A55
:104880009DF80C30DBB28DF82630214B5B798DF82A
:1048900010301F4B1B798DF811309DF827308DF8A3
:1048A00012309DF827303733DBB28DF813309DF886
:1048B00026308DF814309DF826305A2B8CBF0123FA
:1048C0000023DBB28DF81530104BD86904A90623FC
:1048D000019300230093002340F22622FFF7EAFD14
:1048E00000BF0BB05DF804FB00000000000070404A
:1048F00000000000004080400000000000E06FC0A9
:104900000000000000E06F40400E0020480E002034
:10491000A06C00080000000000B589B0284B079388
:1049200007AB1846FFF7A8FEB0EE407B9FED226B69
:1049300027EE067B234B83ED007B234B00221A706E
:10494000214B01225A601020FFF7A8F903461E4AA6
:10495000D3601D4BDB68002200211846FFF7F6F9F3
:10496000194B01221A72184B00221A74164B01229D
:104970005A610120FFF740FA0346134AD36101232D
:104980000593012304930023039300230293002340
:104990000193002300930023002200210120FFF750
:1049A000E7FC094B01221A7607AB1846FFF764FEB5
:1049B00000BF09B05DF804FB000000000000694082
:1049C00082B73144400E0020480E002008B5174B36
:1049D0001B78002B14D1154B01221A70134B5B6806
:1049E000012B0DD1114B1B7A002B09D00F4BDB682B
:1049F0001846FFF7E0F90D4BDB681846FFF7E0F9C2
:104A00000A4B1B7C002B0FD1084B01221A74074B59
:104A10005B69012B08D1054B1B7E002B04D0034B97
:104A2000DB691846FFF781FD00BF08BD480E002076
:104A300008B50F4B1B785A1CD1B20D4A1170002BD0
:104A400009D00C4B01221A60094B1B78013BDAB2EA
:104A5000074B1A700BE062B600BFFFF759FE72B643
:104A600000BF034B1B78013BDAB2014B1A7008BD43
:104A7000700E00206C0E002000B583B04FF07E5306
:104A80000193274B0093274B00221A70264B0022DC
:104A90001A7001DF72B600BF00F0A4F8FFF714F837
:104AA000224B1B6800221A60FFF736FF72B600BF68
:104AB0009DED010A00F014F91C4B1B681B68002BCC
:104AC0000CBF01230023DBB21A46174B1A7062B6E3
:104AD00000BF62B600BF15E0144B1B681B68002BBB
:104AE00014BF01230023DBB21A460E4B1A700D4B84
:104AF0001B78DBB2002B0CBF01230023DBB21A466C
:104B0000094B1A70084B1B78DBB2002BE4D1FFF77E
:104B10005DFF72B600BF0023184603B05DF804FBCA
:104B200000005843710E0020720E00209C6C00089B
:104B300082B08DED000B9DED007BB0EEC77B9FED4D
:104B40000A6BB4EE467BF1EE10FA01DC002307E0BD
:104B5000019B03F00043002B01D0FF2300E0012361
:104B6000184602B0704700BFFFFFFFFFFFFFEF7F57
:104B700082B08DED000B9DED006B9DED007BB4EEE2
:104B8000476BF1EE10FA01D7012300E0002318462D
:104B900002B0704782B0034600918DF807309DF94E
:104BA0000730002B0ADB009BDAB20C499DF9073075
:104BB0001201D2B20B4483F800230BE0009BDAB25F
:104BC00007499DF8073003F00F03043B1201D2B2EE
:104BD0000B441A7600BF02B0704700BF00E100E04E
:104BE00000ED00E008B500216FF00400FFF7D2FFF0
:104BF00000BF08BD82B0034600918DF807309DF9D3
:104C00000730002B0ADB009BDAB20C499DF9073014
:104C10001201D2B20B4483F800230BE0009BDAB2FE
:104C200007499DF8073003F00F03043B1201D2B28D
:104C30000B441A7600BF02B0704700BF00E100E0ED
:104C400000ED00E000B583B00190019B013BB3F1A2
:104C5000807F01D301230FE0094A019B013B536090
:104C60000F214FF0FF30FFF7C5FF054B00229A6080
:104C7000034B07221A600023184603B05DF804FBBB
:104C800010E000E008B5BFF34F8F00BFBFF36F8F98
:104C900000BF0C4B1A680C4B1B689A4202D3094B9D
:104CA00000221A60074B1B685A1C06490A60002B39
:104CB00005D172B600BFFFF7BBFE62B600BF00BFF2
:104CC00008BD00BF740E0020780E0020034B5B6807
:104CD000024A43F08053536000BF704700ED00E08C
:104CE00000B585B08DED010A224B1B6807EE903AA6
:104CF000B8EE677ADDED017A67EE277AFCEEE77AA7
:104D000017EE903A0393039BB3F1807F18D3039B74
:104D100007EE903AB8EE677ADFED176AC7EE267AAB
:104D2000FCEEE77A17EE903A0133144A1360134B06
:104D30001B68039AB2FBF3F31846FFF783FF05E005
:104D40000E4B00221A600398FFF77CFF0C4B0022E9
:104D50001A600C4A0C4B1A600F216FF00400FFF729
:104D600049FF0F216FF00100FFF744FF00BF05B0BE
:104D70005DF804FB04040020FFFF7F4B780E002049
:104D8000740E0020854C00087C0E0020EFF300809C
:104D900001B5EFF3118003B41EF0100F08BFB0EEA1
:104DA000400A0A48006803B488B004A006904FF097
:104DB000807007906FF006008646704703BC8047FE
:104DC000BFF36F8F00DFFEE700BF00007C0E002006
:104DD0001EF0100F08BFB0EE400A1EF0040F0CBF0B
:104DE000EFF30880EFF30980816911F8020C10B12C
:104DF00001280DD00BE01EF0100F0CBF1AB008B048
:104E000003BC80F3118803BC80F300880847FEE7E9
:104E10004EF61451CEF200010A6842F001020A6017
:104E20007047F4E700BF00BF08B52DED048BB0EE6E
:104E3000409BB0EE418B00F0ABF8B4EE489BF1EE36
:104E400010FA06D69FED0A9BB4EE498BF1EE10FAEC
:104E500002D0BDEC048B08BD01F05CF889EE090BB3
:104E6000BDEC048B2123036008BD00BFAFF30080BD
:104E7000000000000000000000B583B08DED000BC5
:104E800001990098C1F30A52A2F2FF33132B33DCCD
:104E9000002B23DB3C4A1A4101EA020E5EEA000EB7
:104EA0008C462ED09FED367B9DED006B36EE077B5A
:104EB000B5EEC07BF1EE10FA09DD002904DA4FF4FB
:104EC000801141FA03F39C442CEA020100200B46B6
:104ED000024643EC102B03B05DF804FB9FED287BEA
:104EE00030EE077BB5EEC07BF1EE10FAEFDD002966
:104EF0002ADB00200146EAE7332B07DDB3F5806F9C
:104F00001DD09DED000B03B05DF804FBA2F213422F
:104F10004FF0FF3C2CFA02F20242F2D09FED187BD8
:104F20009DED006B36EE077BB5EEC07BF1EE10FA1F
:104F3000CDDD002984460EDB2CEA0200C7E79DED9B
:104F4000007B37EE070BDEE721F0004108430FD16D
:104F50004FF00041BBE7142B0DD04FF0010EC3F111
:104F600034030EFA03F39C44844538BF7144E3E7ED
:104F700006490020ABE70131DEE700BFAFF3008058
:104F80009C7500883CE4377EFFFF0F000000F0BFF7
:104F9000F0B585B08DED001BDDE9005E2EF0004020
:104FA00055EA00038DED020B45D0039BB44A23F074
:104FB000004797423FD8C5F1000CB24E4CEA0502BB
:104FC00040EAD272B24236D88742029903F00044D6
:104FD0003BDC7FDB8D427DD800F0B180334243D192
:104FE000AFBB00290E4640F32C81A74A7600002E65
:104FF00002F1FF32FADCA34E0EEA0606002E40F064
:105000009180002840F0E080002DAC46D8BFA6F289
:10501000134668DC9D4BA3EB020CBCF11F0F00F3A1
:10502000F18002F21E4321FA03F307FA0CF73B4327
:1050300001FA0CF167E09DED027B9DED006B27EE20
:10504000067B87EE070B05B0F0BD33420CD18F4ACB
:10505000FE027600002E02F1FF32CCDD7600002E3B
:1050600002F1FF32F5DCC6E7864E3A150EEA060677
:10507000A2F2FF328EB30015C3F31303A0F2FF3682
:1050800043F48013A1EB050CCEF3130E4EF4801EF7
:10509000921B0CD162E0013857D4A1EB050C4FEA0A
:1050A000DC73013A03EB40034FEA4C0154D0A942B0
:1050B000A3EB0E00EFD30028A1EB050C45DB50EA73
:1050C0000C03ECD1724BE40F03EBC40393ED000B24
:1050D00005B0F0BD9DED020BB5E7002874D1002DA1
:1050E000AC4640F3B980684E4FEA4C0CBCF1000F5F
:1050F00006F1FF36F8DCDFF894C162458ADBC3F3C2
:10510000130343F48013614FBF1B1F2F4DDC06F2C6
:105110001E4E25FA0EFEB840BD404EEA000EA1EB31
:10512000050CB5E70015A0F2FF365848801A1F2875
:1051300078DD584B9B1A01FA03F30021A4E7544B86
:1051400003EB147393ED000B7DE7C80F013A00EBFE
:1051500043034FEA4101AAD1A1EB050CA3EB0E02D8
:105160008D4288BF02F1FF32002ABCBF8C461A462E
:1051700052EA0C0307D1A5E74FEADC7303EB4202C6
:105180004FEA4C0C013EB2F5801FF5DB3F4B9E42CF
:1051900025DBA2F5801242EA040106F2FF3641EA5D
:1051A0000653624643EC102B4DE73A48921BA0EBA6
:1051B000060E05FA0EFE18BF00257FF478AFA3EBAC
:1051C0000E028C46D0E7304A304E4FEAC02C4FEAF0
:1051D0004C0CBCF1000F06F1FF36F8DC8BE79B1B93
:1051E000142B15DC06F21E412CFA03FC02FA01F125
:1051F00042FA03F341EA0C011C4323460A4643ECFE
:10520000102B20E7234B9B1A01FA03F300217AE7C6
:105210001F2B11DC06F21E412CFA03F302FA01F1F6
:105220001943EAE702F21E4321FA03F387403B43A6
:105230008140A1EB050C27E71649891B42FA01F1D1
:10524000DBE7104A0EEA02027AB10015CB0A0E4AD9
:10525000A0F2FF364905ECE7C3F313030A4E43F40B
:1052600080134FF00B0E152753E70028ABD1002D0C
:10527000054AAC463FF737AF4FF0150C1646D0E65F
:10528000FFFFEF7F0000F07FEDFBFFFF02FCFFFF61
:10529000A86C0008E2FBFFFF53B94AB9002908BF18
:1052A00000281CBF4FF0FF314FF0FF3000F06AB90B
:1052B000ADF1080C6DE904CE00F006F8DDF804E06D
:1052C000DDE9022304B070472DE9F047089D0E4642
:1052D00004460F46002B4AD194468C45B2FA82F21E
:1052E00060D942B1C2F12003974020FA03F30CFACF
:1052F00002FC1F4394404FEA1C4E1FFA8CF6B7FB8A
:10530000FEF1230C0EFB117743EA074301FB06F085
:1053100098420AD91CEB030301F1FF3780F0158195
:10532000984240F21281023963441B1AA4B2B3FBC3
:10533000FEF00EFB103344EA034400FB06F6A642DF
:105340000AD91CEB040400F1FF3380F00081A6426F
:1053500040F2FD806444023840EA0140A41B002171
:105360001DB1D4400023C5E90043BDE8F0878B425E
:1053700005D90DB1C5E9000100210846F5E7B3FAEA
:1053800083F1002946D1B34202D3824200F2F58074
:10539000841A66EB030201201746002DE5D0C5E90B
:1053A0000047E2E7002A40F09380A1EB0C034FEAAC
:1053B0001C471FFA8CFE0121B3FBF7F607FB1630E2
:1053C000230C43EA00430EFB06F0984208D91CEB7D
:1053D000030306F1FF3802D2984200F2D08046461D
:1053E0001B1AA4B2B3FBF7F007FB103344EA0344E3
:1053F0000EFB00FEA64508D91CEB040400F1FF33A8
:1054000002D2A64500F2B6801846A4EB0E0440EA8C
:105410000640A5E7C1F120078B4022FA07FC4CEAC1
:10542000030C06FA01FE20FA07F426FA07F344EA11
:105430000E0400FA01F84FEA1C404FEA1449B3FB8E
:10544000F0FE1FFA8CF600FB1E3349EA03430EFB05
:1054500006F9994502FA01F20BD91CEB03030EF190
:10546000FF3A80F08580994540F28280AEF1020ECD
:105470006344A3EB0909A4B2B9FBF0F300FB139951
:1054800044EA094403FB06F6A64208D91CEB0404CF
:1054900003F1FF3068D2A64266D9023B644443EA76
:1054A0000E40A41BA0FB02E6B4427346B14652D3A1
:1054B0004FD05DB1B8EB030264EB090404FA07F7BF
:1054C00022FA01F31F43CC40C5E9007400214CE7E8
:1054D000C2F1200120FA01F30CFA02FC26FA01F1D4
:1054E000964033434FEA1C471FFA8CFEB1FBF7F09E
:1054F00007FB1016190C41EA064100FB0EF68E421E
:1055000004FA02F408D91CEB010100F1FF382DD296
:105510008E422BD902386144891B9BB2B1FBF7F64E
:1055200007FB161143EA014306FB0EF1994208D925
:105530001CEB030306F1FF3814D2994212D9023E44
:1055400063445B1A46EA004136E73946EDE6184601
:1055500002E7F045ADD2BEEB020366EB0C06013864
:10556000B146A6E74646ECE7034698E74046D3E750
:10557000D6467EE76444023847E708460DE7023E18
:1055800063442DE7704700BF08B5064B044613B1CE
:105590000021AFF30080044B1B6803B198472046FD
:1055A000FBF7FCFE00000000C00F0020024B01468C
:1055B000186800F02DB800BF0C0C0020024B01460B
:1055C000186800F03BBD00BF0C0C002070B50F4EFA
:1055D0000C463168054611B900F07AFC306021466E
:1055E000284600F075FC431C03D14FF0FF342046E1
:1055F00070BDC41C24F00304A042F8D0211A284630
:1056000000F066FC0130F2D1EFE700BF800E002011
:105610002DE9F843CD1C25F0030508350C2D38BFC6
:105620000C25002D064601DBA94204D90C2333606A
:105630000020BDE8F883DFF8D480FBF7A5FDD8F89B
:1056400000301C4644BB29463046FFF7BFFF431CD1
:10565000044658D1D8F800402746002F43D1002CEB
:105660004BD023683946304604EB030900F030FC88
:10567000814542D121686D1A29463046FFF7A6FFC1
:1056800001303AD023682B442360D8F800305A68A0
:1056900062BBC8F800700FE02268521B20D40B2AAE
:1056A00017D96119A342256018BF5960636808BF04
:1056B000C8F8001062514B603046FBF769FD04F1F9
:1056C0000B00231D20F00700C21A1CBF1B1AA35099
:1056D000AFE76268A3420CBFC8F800205A60EBE74E
:1056E00023466468AEE73C467F68B6E71A465B68C7
:1056F000A342FBD100235360DEE70C233360304626
:10570000FBF746FD94E70560D6E700BF840E002056
:105710002DE9F047164698468A680B69DDF8209017
:105720009342B8BF1346336091F8432007460C46B6
:105730000AB1013333602368990642BF33680233EC
:105740003360256815F0060506D104F1190AE368EF
:1057500032689B1AAB4226DC94F843302268003B47
:1057600018BF012392062BD404F143024146384668
:10577000C84701301ED02368226903F00603042BBA
:1057800002BFE5683368ED1AA3680CBF25EAE5752A
:1057900000259342C4BF9B1AED1800261A34B54267
:1057A0001AD1002008E00123524641463846C84736
:1057B000013003D14FF0FF30BDE8F0870135C6E777
:1057C000E1185A1C302081F84300224494F8451017
:1057D00082F843100233C7E7012322464146384688
:1057E000C8470130E6D00136D9E700002DE9FF4770
:1057F0000F7E0C9E782F914680460C469A4601F10A
:10580000430207D8622F0AD8002F00F0D180582F0A
:1058100000F0B88004F1420684F842703AE0A7F143
:105820006303152BF6D801A151F823F08558000821
:105830009958000815580008155800081558000810
:105840001558000899580008155800081558000800
:10585000155800081558000897590008C358000843
:10586000515900081558000815580008B959000882
:1058700015580008C35800081558000815580008A6
:105880005959000833681A1D1B68326004F142063A
:1058900084F8423001239CE033682068191D316090
:1058A000060601D51D6803E04506FBD5B3F9005097
:1058B000002D03DA2D236D4284F8433058480A2323
:1058C00011E021683368080653F8045B02D44906E6
:1058D00048BFADB26F2F5248336014BF0A2308236C
:1058E000002184F843106668A660002E05DB21685D
:1058F0002E4321F0040121604BD01646B5FBF3F195
:1059000003FB1157C75D06F8017D2F46BB420D46CC
:10591000F4D9082B0BD12368DF0708D52369616808
:105920009942DEBF302306F8013C06F1FF36921B98
:105930002261CDF800A04B4603AA21464046FFF75E
:10594000E7FE01304AD14FF0FF3004B0BDE8F087E8
:10595000236843F0200323603248782784F8457099
:10596000236831681F0651F8045B02D45F0648BF04
:10597000ADB23160D90744BF43F0200323601DB1AD
:105980001023ADE72648E9E7236823F020032360CE
:10599000F6E71646BDE7336825686169181D306073
:1059A0002E061B6801D5196002E06806FBD5198038
:1059B000002323611646BCE733681A1D32601E6857
:1059C00062680021304600F0D3FA08B1801B6060A5
:1059D00063682361002384F84330AAE723693246D1
:1059E00049464046D0470130ADD023689B0713D4C9
:1059F000E068039B9842B8BF1846A6E701233246E9
:105A000049464046D04701309DD00135E3680399AF
:105A10005B1AAB42F2DCEBE7002504F11906F5E76F
:105A2000EA6A0008FB6A0008B1F90C202DE9F04190
:105A3000160705460C4654D44B68002B02DC0B6C51
:105A4000002B48DDE66A002E45D0002312F4805278
:105A50002F68216A2B6030D0626DA389590705D564
:105A60006368D21A636B0BB1236CD21A0023E66A07
:105A7000216A2846B047431CA38906D129681D29FD
:105A80002BD82A4ACA40D60727D500226260D904FB
:105A90002269226004D5421C01D12B6803B96065DC
:105AA000616B2F60B9B104F14403994202D02846DA
:105AB00000F0C4FA002363630DE001232846B047D9
:105AC0000246501CC9D12B68002BC6D01D2B01D01B
:105AD000162B1ED12F60002022E043F040031BB2A2
