:020000040800F2
:1000000000000524BD8F0008D11B0008D91B000883
:10001000E11B0008E91B0008F11B000800000000BC
:10002000000000000000000000000000F18A00084D
:10003000F91B000800000000418D0008C985000878
:100040000D9000080D9000080D9000080D9000081C
:100050000D9000080D9000080D9000080D9000080C
:100060000D9000080D9000080D9000080D900008FC
:100070000D9000080D9000080D9000080D900008EC
:100080000D9000080D9000080D9000080D900008DC
:100090000D9000080D9000080D9000080D900008CC
:1000A0000D9000080D9000080D9000080D900008BC
:1000B0000D9000080D900008091C00080D90000824
:1000C0000D9000080D9000080D9000080D9000089C
:1000D0000D9000080D9000080D9000080D9000088C
:1000E0000D9000080D900008000000000D90000821
:1000F0000D9000080D9000080D9000080D9000086C
:100100000D9000080D9000080D9000080D9000085B
:100110000D9000080D9000080D9000080D9000084B
:100120000D9000080D9000080D9000080D9000083B
:100130000D9000080D9000080D9000080D9000082B
:1001400000000000000000000000000000000000AF
:100150000D9000080D9000080D9000080D9000080B
:100160000D9000080D9000080D9000080D900008FB
:100170000D9000080D9000080D9000080000000090
:100180000D9000080D9000080D9000080D900008DB
:100190000D9000080D9000080D9000080D900008CB
:1001A0000D9000080D9000080D9000080000000060
:1001B0000D9000080D9000080D9000080D900008AB
:1001C0000D9000080D9000080000000000000000E5
:1001D00000000000000000000D900008000000007A
:1001E000000000000000000000000000000000000F
:1001F00000000000000000000D9000080D900008B5
:100200000D9000080D900008000000000D900008FF
:100210000D9000080D9000080D9000080D9000084A
:100220000D900008000000000D9000080000000084
:100230000D9000080D900008000000000D900008CF
:100240000D9000080D9000080D9000080D9000081A
:100250000D9000080D9000080D9000080D9000080A
:100260000D9000080D9000080D9000080D900008FA
:100270000D9000080D9000080D900008000000008F
:100280000D9000080D9000080D9000080D900008DA
:10029000000000000D9000080D9000080000000014
:1002A000000000000D9000080D9000080D9000085F
:1002B0000D9000080D9000080D9000080D900008AA
:0C02C0000D9000080D9000080D90000843
:1002D0000348044B834202D0034B03B118477047D5
:1002E000A4000024A4000024000000000548064BE0
:1002F0001B1AD90F01EBA301491002D0034B03B124
:1003000018477047A4000024A40000240000000047
:1003100010B5064C237843B9FFF7DAFF044B13B14D
:100320000448AFF300800123237010BDA80000240F
:1003300000000000E091000808B5054B1BB105491D
:100340000548AFF30080BDE80840FFF7CFBF00BF0E
:1003500000000000AC000024E091000880B485B0EB
:1003600000AF0346FB710023FB60FB79022B1AD020
:10037000022B22DC002B02D0012B0AD01DE01E4BE9
:10038000FB60FB681B79002B1AD1FB681B4A1A60C3
:1003900016E01B4BFB60FB681B79002B12D1FB683E
:1003A000184A1A600EE0184BFB60FB681B79002BA3
:1003B0000AD1FB68154A1A6006E00023FB6004E0DE
:1003C00000BF02E000BF00E000BFFB68002B0CD0C4
:1003D000FB681B79002B08D1FB6801221A71FB68AE
:1003E00000225A71FB6800229A71FB681846143784
:1003F000BD465DF8047B7047C40000248C020024D5
:10040000CC0000242C030024D4000024CC030024BE
:1004100080B590B000AFF860B9607A60FB700023DF
:10042000FB63FB68002B00F0FE80FB681B79012B4F
:1004300040F0F980FB681B68BB63FB78002B04D19C
:100440007B687B610023BB6104E07B687B614FF0CC
:100450008043BB6197F84830002B01D1002301E0B5
:100460004FF00053FB6197F85830002B01D1002367
:1004700001E04FF48013BB6297F85430002B01D198
:10048000002301E04FF40013FB62FB6C3B62FB6C4A
:10049000082B40F28F80FB6C0C3B342B00F28E80DB
:1004A00001A252F823F000BF7D050008BD05000839
:1004B000BD050008BD05000885050008BD0500084C
:1004C000BD050008BD0500088D050008BD05000834
:1004D000BD050008BD05000895050008BD0500081C
:1004E000BD050008BD050008BD050008BD050008E4
:1004F000BD050008BD0500089D050008BD050008F4
:10050000BD050008BD050008BD050008BD050008C3
:10051000BD050008BD050008BD050008BD050008B3
:10052000BD050008BD050008BD050008BD050008A3
:10053000BD050008BD050008A5050008BD050008AB
:10054000BD050008BD050008BD050008BD05000883
:10055000BD050008BD050008BD050008BD05000873
:10056000BD050008BD050008BD050008BD05000863
:10057000BD050008BD050008AD0500084FF41023B7
:100580003B621CE04FF420233B6218E04FF4302321
:100590003B6214E04FF440233B6210E04FF45023E1
:1005A0003B620CE04FF460233B6208E04FF47023A1
:1005B0003B6204E0FB6C1B043B6200E000BF4FF4B5
:1005C00000033B634FF000437B6205F05DF9F86385
:1005D00000BFBB6B1B68D3F8C43003F40013002BBF
:1005E00007D00121F86B00F027FF02463B6D9342D4
:1005F000EFD207F11403BA681946B86B02F019FA82
:100600000346002B07D0B86B02F030FC0246FB6DAE
:100610001A60012308E0B86B02F028FC0246FB6D6B
:100620001A60002300E0002318464037BD4680BD15
:1006300080B592B000AFF8607A603B600B46FB7209
:1006400000237B61FB68002B00F0B680FB681B7900
:10065000012B40F0B180FB681B687B6405F014F946
:1006600003467B61FB7A402B25D0FB7A412B22D0BD
:100670000AE07B690121184600F0DEFE0246BB6EEF
:10068000934201D2012398E0FB7A1946786C02F07C
:1006900089FB0346002BECD00DE07B690121184655
:1006A00000F0CAFE0246BB6E934204D2FB6E0022EB
:1006B0001A60012381E0F97A07F118027B68786CEF
:1006C00002F012FA0346002BE7D1BA693B681A60C0
:1006D000FB69002B14BF01230023DBB21A463B6DDC
:1006E0001A70FB6A002B14BF01230023DBB21A46E9
:1006F0003B6E1A703B6B002B14BF01230023DBB24F
:100700001A467B6E1A703B6ADAB27B6D1A707B6A8E
:100710001B0C87F8433097F84330082B32D997F8F1
:100720004330093B062B32D801A252F823F000BF18
:100730004D070008550700085D0700086507000819
:100740006D070008750700087D070008BB6D0C22C7
:100750001A701DE0BB6D10221A7019E0BB6D1422D7
:100760001A7015E0BB6D18221A7011E0BB6D2022C3
:100770001A700DE0BB6D30221A7009E0BB6D40228B
:100780001A7005E0BB6D97F843201A7000E000BFB7
:100790007B6ADAB2FB6D1A70FB7A402B02D0FB7ACF
:1007A000412B07D1FB7A1946786C02F041FB0246D7
:1007B000FB6E1A60002300E0002318464837BD4650
:1007C00080BD00BF80B584B000AF78607B68002B2F
:1007D00009D07B681B79012B05D17B681B68FB6006
:1007E000F86802F033F800BF1037BD4680BD000046
:1007F00080B483B000AF0346FB71FB79032B0AD0B2
:10080000032B0ADC012B02D0022B02D005E0064BA1
:1008100004E0064B02E0064B00E0002318460C37CC
:10082000BD465DF8047B70478C0200242C03002435
:10083000CC03002480B588B002AFB9607A603B6019
:100840000346FB73FB7B1846FFF7D2FF78617B6999
:10085000002B07D03B6A00933B687A68B9687869D7
:1008600002F018F800BF1837BD4680BD80B582B0D1
:1008700000AF7860174B1B681B68002B0CBF01236F
:100880000023DBB21A46144B1A700FE0134800F035
:1008900058FF00F0AFF80F4B1B681B68002B14BF0C
:1008A00001230023DBB21A460D4B1A700A4B1B784A
:1008B000DBB2002BEAD1084B00221A70786800F0F6
:1008C00011F8002000F0D6FE002318460837BD4678
:1008D00080BD00BF7092000800000024E4000024E6
:1008E000DC00002480B582B000AF7860074B0122A5
:1008F0001A60074B00221A7000F0BEFC054800F099
:100900003EFF002318460837BD4680BD0401002481
:1009100000000024E000002480B584B002AF7860BD
:10092000396004F061FF00F073FF00F05DFD01F03D
:100930000DF900F0DDFF01F041F801F0A3F801230B
:1009400000930123022200210220FFF773FF0123FD
:1009500000930123022200210320FFF76BFF094BC4
:100960001B6800221A6000F0CDFB00209FED060AF4
:1009700000F092FD054800F0E4FE00231846083719
:10098000BD4680BD709200086F12833AE0000024DB
:1009900080B483B000AF786039607B683A689A6150
:1009A00000BF0C37BD465DF8047B704780B483B050
:1009B00000AF786039603B681A047B689A6100BFB9
:1009C0000C37BD465DF8047B704780B582B000AF40
:1009D00078607B68002B08D07B681B79012B04D1E1
:1009E0007B681B68184601F082FF00BF0837BD46D0
:1009F00080BD000080B5BAB008AFBE4BD86907F122
:100A00001803079301230693BB4B0593BB4B049339
:100A1000BB4B0393BB4B0293BB4B0193BB4B00936C
:100A2000BB4BBC4A4021FFF703FEBB4B002283F8BF
:100A30005C20B94B002283F85E20B74B00225A6637
:100A4000B5494FF000024FF00003C1E91A2300231B
:100A500087F8BB30B04B93F85A30042B16D1AE4B0D
:100A60001B6EB3F1FF3F11D0AB4B1B6EB3F5087F8C
:100A70000CD1A94B93F85930002B07D1012387F8EB
:100A8000BB30A54B1B6FA44AC2F8B030A24A97F8FE
:100A9000BB3082F8B4300023C7F8B4300023A7F885
:100AA000B2309E4BC7F8AC300123A7F8B230D7F86C
:100AB000AC20D7F8B430D118B7F8B220FB1D1846D7
:100AC00008F02AFB0023C7F8A8300023A7F8A630B7
:100AD000934BC7F8A0300123A7F8A630D7F8A02081
:100AE000D7F8A830D118B7F8A6207B1D184608F013
:100AF00013FB0023C7F89C300023A7F89A30894BDA
:100B0000C7F894300123A7F89A30D7F89420D7F883
:100B10009C30D118B7F89A20BB1D184608F0FCFA93
:100B20000023C7F890300023A7F88E307E4BC7F81B
:100B300088300123A7F88E30D7F88820D7F8903076
:100B4000D118B7F88E203B1D184608F0E5FAFB795E
:100B50003B737B797B73BB79BB733B79FB73734BC3
:100B600093F831303B74714B93F832307B746F4B98
:100B700093F83230BB746D4B93F83230FB746B4B8F
:100B800093F832303B75694B93F832307B75674B85
:100B900093F83230BB75654B93F83230FB75554B8B
:100BA000D86D07F10C0107F1180305930023049396
:100BB00001230393012302930C2301930023009349
:100BC000002340F22322FFF723FC534B93F85A30C3
:100BD000062B14D1504B1B6EB3F1FF3F0FD04E4B81
:100BE0001B6E40F22622934209D14B4B93F85930A9
:100BF000002B04D1062247494D4808F08DFA3D4BA1
:100C0000D86F07F11803059300230493002303937F
:100C100001230293042301930023009300234FF444
:100C200008723E49FFF7F4FB0023C7F88430002325
:100C3000A7F882303E4BFB670123A7F88230FA6F9A
:100C4000D7F88430D118B7F882203B1D184608F039
:100C500063FA0023BB670023A7F87630354B3B6768
:100C60000123A7F876303A6FBB6FD118B7F876201A
:100C7000BB1D184608F050FA0023FB660023A7F8B6
:100C80006A302D4B7B660123A7F86A307A6EFB6EC3
:100C9000D118B7F86A207B1D184608F03DFA0023EA
:100CA0003B660023A7F85E30244BBB650123A7F801
:100CB0005E30BA6D3B6ED118B7F85E20FB1D18464A
:100CC00008F02AFA0B4BD86807F1180307930123A1
:100CD0000693114B05931A4B04931A4B03931A4B2B
:100CE00002931A4B01931A4B00931A4B1A4A402154
:100CF00034E000BFC8010024600100246501002425
:100D000067010024620100246301002461010024C2
:100D1000680100247801002408010024B80100249F
:100D2000B9010024BA010024BB01002408000024FA
:100D3000BD010024BE010024BF010024C001002425
:100D40000D0100240F0100240A0100240B010024DE
:100D5000090100241001002420010024FFF768FC91
:100D6000754B00221A71744B00229A71724B00224B
:100D7000DA6071494FF000024FF00003C1E904232B
:100D8000002387F8BA306C4B9B78042B16D16A4B42
:100D90009B68B3F1FF3F11D0674B9B6840F2212263
:100DA00093420BD1644B5B78002B07D1012387F86A
:100DB000BA30614B9B69604AC2F8BB305E4A97F813
:100DC000BA3082F8BF303B791B02BA79134307EE81
:100DD000903AB8EEE76B594B93ED027BB4EE476B5C
:100DE000F1EE10FA0CBF01230023DBB287F8573075
:100DF00000233B650023A7F84E30514BBB64012311
:100E0000A7F84E30BA6C3B6DD118B7F84E203B1D99
:100E1000184608F081F900237B640023A7F84230CC
:100E2000484BFB630123A7F84230FA6B7B6CD11867
:100E3000B7F84220BB1D184608F06EF93B791BB28B
:100E40001B021AB2BB791BB213431BB27B87002370
:100E50007B6300237B863C4BFB6201237B86FA6A23
:100E60007B6BD1187A8E3B1D184608F055F93B79FB
:100E700007EE903AB8EE676B304B93ED087B36EE99
:100E8000077B87ED307B0023BB620023FB842F4B65
:100E90003B620123FB843A6ABB6AD118FA8C3B1D82
:100EA000184608F039F9254B93F833303B72224B42
:100EB00093F8B9307B7297F85730002B48D07B7984
:100EC00007EE903AB8EE676B1C4B93ED047B36EE61
:100ED000076BFB7907EE903AB8EEE77BB4EE476B11
:100EE000F1EE10FA34D1154B93ED066B7B8F07EEC4
:100EF000903AB8EEE77BB4EE476BF1EE10FA27D1EB
:100F00003B7907EE903AB8EEE77B97ED306BB4EEA5
:100F1000476BF1EE10FA1BD1084B93ED0A7BB5EE4F
:100F2000407BF1EE10FA13D0034B93F8BA30002B4C
:100F30000ED001230DE000BF0801002408000024AA
:100F4000C3010024C4010024C5010024C6010024FB
:100F50000023DBB2BB72664BD86E07F1080107F1C4
:100F600018030593002304930023039301230293A2
:100F70000323019300230093002340F22622FFF76E
:100F800047FA5C4B93F834303B735A4B93F8343048
:100F90007B73584B93F83430BB73564B93F8343013
:100FA000FB73544B93F834303B74524B93F834300A
:100FB0007B74504B93F83430BB744E4B93F8343001
:100FC000FB744C4B93F834303B754A4B93F83430F8
:100FD0007B75484B93F83430BB75464B93F83430EF
:100FE000FB75434BD86C07F10C0107F1180305930F
:100FF0000023049301230393012302930C23019301
:101000000023009300234FF40972FFF701FA384BD5
:10101000D86B07F10C0107F1180305930023049323
:1010200001230393012302930C23019300230093D4
:10103000002340F22522FFF7EBF92D4BD86A07F188
:101040000C0107F118030593002304930123039374
:10105000012302930C23019300230093002340F209
:101060002622FFF7D5F9244BFB61214B93F89830EA
:10107000002B05D04FF00002204BC7E9302304E0DD
:101080001C4BD3E90023C7E9302397ED307BB5EE45
:10109000407BF1EE10FA03D00823C7F8BC3002E021
:1010A0000023C7F8BC30D7F8BC301946F869FFF701
:1010B0006FFCD7F8BC30DB4303F008031946F8692E
:1010C000FFF774FC0E4B93F8B430002B06D00C4B9A
:1010D00093F8BF30002B01D0012300E00023DAB2E7
:1010E000034B83F8982000BFC837BD4680BD00BFC2
:1010F000C801002408000024000C02580000F03F42
:101100000801002480B500AF594B93F83020594BAB
:1011100083F89820574B00221A74564B01225A61CB
:101120000120FFF71BF90346524AD361514BDB699B
:101130001846FFF74AFC4F4B01221A764D4B00220E
:1011400083F850204B4B01225A650020FFF706F927
:101150000346484AD365474BDB6D1846FFF735FC1D
:10116000444B012283F85820424B002283F8702020
:10117000404B01225A670220FFF7F0F803463D4A30
:10118000D3673C4BDB6F1846FFF71FFC394B01223E
:1011900083F87820374B00221A70364B01225A60B0
:1011A0000220FFF7DBF80346324AD360314BDB689D
:1011B0001846FFF70AFC2F4B01221A722D4B002212
:1011C00083F860202B4B01225A660220FFF7C6F8F5
:1011D0000346284AD366274BDB6E1846FFF7F5FB1C
:1011E000244B012283F86820224B002283F8402000
:1011F000204B01225A640020FFF7B0F803461D4A35
:10120000D3641C4BDB6C1846FFF7DFFB194B012244
:1012100083F84820174B002283F83020154B012219
:101220005A630020FFF79AF80346124AD363114B22
:10123000DB6B1846FFF7C9FB0E4B012283F8382001
:101240000C4B002283F820200A4B01225A62002016
:10125000FFF784F80346074AD362064BDB6A184659
:10126000FFF7B3FB034B012283F8282000BF80BDAA
:1012700008000024C801002480B500AF594B1B7C36
:10128000002B0FD1574B01221A74564B5B69012B6F
:1012900008D1544B1B7E002B04D0524BDB691846FF
:1012A000FFF790FA4F4B93F85030002B11D14D4B74
:1012B000012283F850204B4B5B6D012B09D1494B28
:1012C00093F85830002B04D0464BDB6D1846FFF7DF
:1012D00079FA444B93F87030002B11D1414B012225
:1012E00083F870203F4B5B6F012B09D13D4B93F886
:1012F0007830002B04D03B4BDB6F1846FFF762FAC7
:10130000384B1B78002B0FD1364B01221A70354B0E
:101310005B68012B08D1334B1B7A002B04D0314B77
:10132000DB681846FFF74EFA2E4B93F86030002B1F
:1013300011D12C4B012283F860202A4B5B6E012BCC
:1013400009D1284B93F86830002B04D0254BDB6E75
:101350001846FFF737FA234B93F84030002B11D192
:10136000204B012283F840201E4B5B6C012B09D1DE
:101370001C4B93F84830002B04D01A4BDB6C1846FA
:10138000FFF720FA174B93F83030002B11D1154B93
:10139000012283F83020134B5B6B012B09D1114BD9
:1013A00093F83830002B04D00E4BDB6B1846FFF758
:1013B00009FA0C4B93F82030002B11D1094B012274
:1013C00083F82020074B5B6A012B09D1054B93F86A
:1013D0002830002B04D0034BDB6A1846FFF7F2F9E4
:1013E00000BF80BDC801002480B400AF00BFBD466F
:1013F0005DF8047B704700BF10B50E4C82B0636A85
:10140000019304F041FA0090626A019B9A4207D36B
:10141000009B4FF47A72019802FB030002B010BDEA
:1014200004F032FA636A4FF47A7202FB003002B0C1
:1014300010BD00BF0008004010B5044641B9FFF7D9
:10144000DBFF0346181BA34238BF00F1FF3010BD7D
:1014500004F01AFA0346181BA34238BF00F1FF300C
:1014600010BD00BF80B582B000AF7860034800F0C7
:1014700086F900BF0837BD4680BD00BFE4000024E8
:1014800080B582B000AF78607868FFF7EFF900BFF1
:101490000837BD4680BD000080B588B000AF87ED3D
:1014A000010A386000214E4800F034F9F861FB6908
:1014B000002B0BD04FF0500383F31188BFF36F8FD5
:1014C000BFF34F8FBB6100BF00BFFDE70021454860
:1014D00000F020F9F861FB69002B0BD04FF05003AE
:1014E00083F31188BFF36F8FBFF34F8F7B6100BF12
:1014F00000BFFDE73C4B28221A613B4B00229A615A
:10150000394B80229A82384B384A07CA03C31A7073
:1015100000223749344800F079F8F861FB69002B64
:101520000BD04FF0500383F31188BFF36F8FBFF3DD
:101530004F8F3B6100BF00BFFDE72E4B00221A60BA
:101540002D4B00221A60D7ED017A9FED2C7A67EEC1
:10155000877AFCEEE77A17EE902A274B5A60264BE3
:1015600001229A60234B1B681A46234BDA60244BF6
:10157000244A92E8030018600433198002330A0CED
:101580001A7021491C4800F080F8F861FB69002BB3
:101590000BD04FF0500383F31188BFF36F8FBFF36D
:1015A0004F8FFB6000BF00BFFDE74FF47A71124818
:1015B00000F08CF8F861FB69002B0BD04FF0500362
:1015C00083F31188BFF36F8FBFF34F8FBB6000BFF2
:1015D00000BFFDE705F0FAFD00BF2037BD4680BD26
:1015E000E4000024E0000024E8000024F891000852
:1015F00081140008880200246802002400007A4454
:1016000078020024049200086514000880B588B0B0
:1016100002AFF860B9607A60FB68002B01D101234A
:1016200024E0F968FB68988AFB681B69FA6818323D
:10163000019200937B680246B86805F0CDFB7861A3
:10164000FB689B69002B0BD14FF0500383F311888B
:10165000BFF36F8FBFF34F8F3B6100BF00BFFDE74C
:101660007B69012B14BF01230023DBB21846183716
:10167000BD4680BD80B582B000AF7860002005F027
:1016800031FD00BF0837BD4680BD90B585B002AFC3
:10169000786039607B6803F110007B6859687B686B
:1016A0009A687B68DC683B680093234606F01EFC62
:1016B00002467B681A607B681B68002B01D0002300
:1016C00000E0012318460C37BD4690BD90B585B0AB
:1016D00002AF786039607B68002B16D07B681B688E
:1016E000002B12D07B681C6805F08CFE02463B681C
:1016F000009300230121204606F056FC0346012BEF
:1017000014BF01230023DBB200E0012318460C378D
:10171000BD4690BD80B582B000AF786039603B684F
:1017200019460A2004F0A9FD02467B681A607B680E
:10173000002B01D0002300E0012318460837BD46E6
:1017400080BD80B582B000AF78607B68002B03D08D
:101750007B681B68002B01D101230CE07B681B68B0
:101760004FF0FF31184605F03FF80346012B14BF38
:1017700001230023DBB218460837BD4680BD80B583
:1017800082B000AF78607B68002B03D07B681B6859
:10179000002B01D101230CE07B6818680023002294
:1017A000002104F09FFD0346012B14BF01230023F9
:1017B000DBB218460837BD4680BD80B483B000AFA9
:1017C000786039603B681A047B689A6100BF0C3707
:1017D000BD465DF8047B704780B485B000AF78608B
:1017E0000A4BD3F8E02009497B681343C1F8E03085
:1017F000064BD3F8E0207B681340FB60FB6800BF1A
:101800001437BD465DF8047B704700BF00440258A2
:1018100080B59CB000AF07F124034C22002118468C
:1018200007F0F5FB3B1D20220021184607F0EFFBD7
:10183000022003F09FFF00233B602C4B9B6923F4A5
:1018400040432A4A43F400439361284B9B6903F4C5
:1018500040433B603B6800BF244B9B6903F400534B
:10186000B3F5005FF8D102237B6201233B63402381
:101870007B630223BB640023FB6404233B650F23CB
:101880007B650123BB650423FB6502233B660C23B8
:101890007B660023BB660023FB6607F12403184622
:1018A00001F0FAFC0346002B01D000F08BF93F2336
:1018B0007B600323BB600023FB6008233B61402364
:1018C0007B614023BB614FF48063FB6140233B623B
:1018D0003B1D0221184602F08DF80346002B01D073
:1018E00000F070F900BF7037BD4680BD0048025857
:1018F00080B500AF2F4B304A1A602E4B4FF48072E8
:101900009A602C4B0022DA602A4B01221A74294B70
:1019100000225A74274B00229A74264B03225A61E4
:10192000244B0A229A61234B1D22DA61214B0A22A1
:101930001A62204B03225A621E4B08229A621D4BE8
:101940001F22DA621B4B08221A631A4B0B225A63BE
:10195000184B01229A63174B0022DA63154B0122C0
:101960001A64144B05225A64124B00229A64114BDC
:101970000422DA640F4B01221A650E4B05225A65C8
:101980000C4B00229A650B4B0022DA65094B0122B1
:101990001A66084B00225A66064B05229A660548CD
:1019A00000F076FD0346002B01D000F00BF900BFDC
:1019B00080BD00BF8C02002400A0004080B500AFB5
:1019C0002E4B2F4A1A602D4B00229A602B4B00227F
:1019D000DA602A4B01221A74284B00225A74274BD2
:1019E00000229A74254B06225A61244B03229A61E5
:1019F000224B1022DA61214B03221A621F4B012273
:101A00005A621E4B01229A621C4B0122DA621B4B66
:101A100001221A63194B00225A63184B01229A6360
:101A2000164B0022DA63154B01221A64134B042271
:101A30005A64124B00229A64104B0422DA640F4B52
:101A400001221A650D4B04225A650C4B00229A653F
:101A50000A4B0022DA65094B01221A66074B002265
:101A60005A66064B05229A66044800F011FD0346AB
:101A7000002B01D000F0A6F800BF80BD2C0300248D
:101A800000A4004080B500AF2E4B2F4A1A602D4BAA
:101A900000229A602B4B0022DA602A4B01221A7432
:101AA000284B00225A74274B00229A74254B01229E
:101AB0005A61244B1E229A61224BD122DA61214BBA
:101AC0001E221A621F4B01225A621E4B01229A6289
:101AD0001C4B0122DA621B4B01221A63194B0022B4
:101AE0005A63184B00229A63164B0022DA63154B97
:101AF00001221A64134B04225A64124B00229A6486
:101B0000104B0422DA640F4B01221A650D4B04229C
:101B10005A650C4B00229A650A4B0022DA65094B84
:101B200001221A66074B00225A66064B04229A6667
:101B3000044800F0ADFC0346002B01D000F042F851
:101B400000BF80BDCC03002400D4004080B586B027
:101B500000AF3B4600221A605A609A60DA601A6150
:101B60005A610220FFF738FE0820FFF735FE0821F2
:101B70000A48FFF722FE08233B6001237B60002315
:101B8000BB600023FB6000233B613B4619460348D2
:101B900000F030FB00BF1837BD4680BD000C025876
:101BA00080B582B000AF78607B681B68044A9342BE
:101BB00001D103F055FE00BF0837BD4680BD00BF10
:101BC0000008004080B400AF72B600BF00BFFDE760
:101BD00080B400AF00BFFDE780B400AF00BFFDE7F9
:101BE00080B400AF00BFFDE780B400AF00BFFDE7E9
:101BF00080B400AF00BFFDE780B400AF00BFBD46BA
:101C00005DF8047B7047000080B500AF024803F028
:101C10002FFF00BF80BD00BF7004002480B582B0DC
:101C200000AF0C4BD3F8F4300A4A43F00203C2F879
:101C3000F430084BD3F8F43003F002037B607B6888
:101C400000220F216FF0010000F0FAFB00BF0837FF
:101C5000BD4680BD0044025880B5BAB000AF786080
:101C600007F1D40300221A605A609A60DA601A61A0
:101C700007F12003B4220021184607F0C8F97B6859
:101C80001B687E4A93424DD14FF400433B624FF0B4
:101C90008053C7F8883007F12003184602F062FA33
:101CA0000346002B01D0FFF78DFF754B1B680133F6
:101CB000734A1360724B1B68012B0ED1714BD3F822
:101CC000EC30704A43F48073C2F8EC306D4BD3F8BB
:101CD000EC3003F48073FB61FB696A4BD3F8E030AE
:101CE000684A43F00803C2F8E030664BD3F8E030AE
:101CF00003F00803BB61BB690323C7F8D430022398
:101D0000C7F8D8300023C7F8DC300023C7F8E0302C
:101D10000923C7F8E43007F1D40319465A4803F001
:101D20007FFAA6E07B681B68584A93424ED14FF475
:101D300000433B624FF08053C7F8883007F120031F
:101D4000184602F00FFA0346002B01D0FFF73AFFC6
:101D50004B4B1B6801334A4A1360494B1B68012BEC
:101D60000ED1484BD3F8EC30464A43F48073C2F8A6
:101D7000EC30444BD3F8EC3003F480737B617B6927
:101D8000404BD3F8E0303F4A43F00203C2F8E03062
:101D90003C4BD3F8E03003F002033B613B694FF466
:101DA0004053C7F8D4300223C7F8D8300023C7F80F
:101DB000DC300023C7F8E0300923C7F8E43007F12E
:101DC000D4031946324803F02BFA52E07B681B68B3
:101DD000304A93424DD14FF400433B624FF0805361
:101DE000C7F8883007F12003184602F0BBF9034614
:101DF000002B01D0FFF7E6FE214B1B680133204A80
:101E000013601F4B1B68012B0ED11E4BD3F8EC3017
:101E10001C4A43F48073C2F8EC301A4BD3F8EC3010
:101E200003F48073FB60FB68164BD3F8E030154A6F
:101E300043F00803C2F8E030124BD3F8E03003F06F
:101E40000803BB60BB684FF44053C7F8D43002238B
:101E5000C7F8D8300023C7F8DC300023C7F8E030DB
:101E60000523C7F8E43007F1D4031946064803F008
:101E7000D7F900BFE837BD4680BD00BF00A00040D5
:101E80006C04002400440258000C025800A40040D6
:101E90000004025800D4004080B582B000AF7860E2
:101EA0007B681B68294A934215D1294B1B68013B6B
:101EB000274A1360264B1B68002B07D1254BD3F80C
:101EC000EC30244A23F48073C2F8EC30032122481A
:101ED00003F04EFB36E07B681B68204A934216D124
:101EE0001B4B1B68013B1A4A1360194B1B68002BE4
:101EF00007D1184BD3F8EC30164A23F48073C2F89C
:101F0000EC304FF44051164803F032FB1AE07B6886
:101F10001B68144A934215D10D4B1B68013B0C4AB8
:101F200013600B4B1B68002B07D10A4BD3F8EC3026
:101F3000084A23F48073C2F8EC304FF4405106484D
:101F400003F016FB00BF0837BD4680BD00A000406F
:101F50006C04002400440258000C025800A4004005
:101F60000004025800D4004080B590B000AF786003
:101F70007B680F2B27D8002279681E2000F060FABA
:101F80001E2000F077FA294A7B681360284BD3F8AB
:101F9000E830274A43F00403C2F8E830244BD3F872
:101FA000E83003F00403FB60FB6807F1100207F15F
:101FB00014031146184602F093F8BB6ABB63BB6B6F
:101FC000002B06D101E001232BE002F073F8F86347
:101FD00004E002F06FF803465B00FB63FB6B154AFD
:101FE000A2FB03239B0C013B7B63134B134A1A6038
:101FF000114B40F2E732DA600F4A7B6B53600E4BB5
:1020000000221A610C4B00229A600B4803F048FC36
:102010000346002B04D1084803F0A4FC034600E06B
:10202000012318464037BD4680BD00BF4000002454
:102030000044025883DE1B43700400240008004063
:1020400080B485B000AFF860B9607A60FB68196849
:10205000BB6803FB03F213465B001344DB4301EA56
:102060000302BB6803FB03F3796801FB03F31A4324
:10207000FB681A6000BF1437BD465DF8047B7047EB
:1020800080B485B000AFF860B9607A60FB685A68C8
:10209000BB68DB431A40BB68796801FB03F31A4352
:1020A000FB685A6000BF1437BD465DF8047B70477B
:1020B00080B485B000AFF860B9607A60FB68996859
:1020C000BB6803FB03F213465B001344DB4301EAE6
:1020D0000302BB6803FB03F3796801FB03F31A43B4
:1020E000FB689A6000BF1437BD465DF8047B7047FB
:1020F00080B485B000AFF860B9607A60FB68D968D9
:10210000BB6803FB03F213465B001344DB4301EAA5
:102110000302BB6803FB03F3796801FB03F31A4373
:10212000FB68DA6000BF1437BD465DF8047B70477A
:1021300080B485B000AFF860B9607A60FB68196A56
:10214000BB6803FB03F3BA6802FB03F3BA6803FB43
:1021500002F213461B019B1ADB4301EA0302BB6830
:1021600003FB03F3B96801FB03F3B96801FB03F355
:10217000796801FB03F31A43FB681A6200BF143746
:10218000BD465DF8047B704780B485B000AFF86051
:10219000B9607A60FB68596ABB681B0ABA68120AA0
:1021A00002FB03F3BA68120A02FB03F3BA68120ACD
:1021B00003FB02F213461B019B1ADB4301EA0302F5
:1021C000BB681B0AB968090A01FB03F3B968090A6D
:1021D00001FB03F3B968090A01FB03F3796801FB0A
:1021E00003F31A43FB685A6200BF1437BD465DF81B
:1021F000047B704780B588B000AF786039603B6879
:102200001B683B613B6993FAA3F3FB60FB687B614E
:102210007B69002B01D1202303E07B69B3FA83F3B0
:10222000DBB2FB6148E03B681A680121FB6901FAF7
:1022300003F31340BB61BB69002B3AD03B685B687A
:10224000012B03D03B685B68022B0ED13B689B6877
:102250001A46B9697868FFF72BFF3B6819683B6835
:10226000DB681A467868FFF70BFF3B681B691A4664
:10227000B9697868FFF73CFF3B685B68022B11D1B6
:10228000BB69FF2B07D83B685B691A46B969786858
:10229000FFF74EFF06E03B685B691A46B96978684C
:1022A000FFF772FF3B685B681A46B9697868FFF709
:1022B000C7FEFB690133FB613B681A68FB6922FAC0
:1022C00003F3002BAFD1002318462037BD4680BD55
:1022D00080B485B000AF78607B6803F00703FB60D3
:1022E0000B4BDB68BB60BA684FF6FF031340BB6063
:1022F000FB681A02BB681A43064B1343BB60044ACF
:10230000BB68D36000BF1437BD465DF8047B7047DF
:1023100000ED00E00000FA0580B400AF044BDB687C
:102320001B0A03F007031846BD465DF8047B70479F
:1023300000ED00E080B483B000AF0346FB80B7F946
:102340000630002B0BDBFB8803F01F020749B7F9AF
:1023500006305B09012000FA02F241F8232000BF99
:102360000C37BD465DF8047B704700BF00E100E01C
:1023700080B483B000AF03463960FB80B7F9063004
:10238000002B0ADB3B68DAB20C49B7F906301201C0
:10239000D2B20B4483F800230AE03B68DAB2084962
:1023A000FB8803F00F03043B1201D2B20B441A76F0
:1023B00000BF0C37BD465DF8047B704700E100E0CC
:1023C00000ED00E080B489B000AFF860B9607A60D9
:1023D000FB6803F00703FB61FB69C3F10703042BF0
:1023E00028BF0423BB61FB690433062B02D9FB69B8
:1023F000033B00E000237B614FF0FF32BB6902FA30
:1024000003F3DA43BB681A407B699A404FF0FF310F
:102410007B6901FA03F3D9437B680B4013431846E9
:102420002437BD465DF8047B704780B582B000AFAD
:1024300078607868FFF74CFF00BF0837BD4680BD65
:1024400080B586B000AF0346B9607A60FB81FFF7C4
:1024500063FF78617A68B9687869FFF7B3FF02466D
:10246000B7F90E3011461846FFF782FF00BF183744
:10247000BD4680BD80B582B000AF0346FB80B7F992
:1024800006301846FFF756FF00BF0837BD4680BD2F
:1024900080B598B000AF7860844A07F10C0311460C
:1024A0004C22184606F038FE7B68002B01D1012330
:1024B000C6E17B681B687E4A934206D17B681B6835
:1024C00003F580731A467B685A607B6893F89830EE
:1024D000DBB2002B06D17B68002283F89920786854
:1024E000FFF7BAFB7B681B689A697B681B6822F060
:1024F00010029A6103F0C8F9F86514E003F0C4F91A
:102500000246FB6DD31A0A2B0DD97B68D3F89C3099
:1025100043F001027B68C3F89C207B68032283F8A8
:10252000982001238CE17B681B689B6903F00803FA
:10253000082BE3D07B681B689A697B681B6842F0B4
:1025400001029A6103F0A0F9F86514E003F09CF928
:102550000246FB6DD31A0A2B0DD97B68D3F89C3049
:1025600043F001027B68C3F89C207B68032283F858
:102570009820012364E17B681B689B6903F00103D9
:10258000002BE3D07B681B689A697B681B6842F06C
:1025900002029A617B681B7C012B08D17B681B6857
:1025A0009A697B681B6822F040029A6107E07B68A9
:1025B0001B689A697B681B6842F040029A617B68DD
:1025C0005B7C012B08D17B681B689A697B681B6860
:1025D00042F480429A6107E07B681B689A697B68D5
:1025E0001B6822F480429A617B689B7C012B08D196
:1025F0007B681B689A697B681B6822F480529A6129
:1026000007E07B681B689A697B681B6842F480520C
:102610009A617B681B689B6923F440717B689A68A8
:102620007B681B680A439A617B681B689A697B68B0
:102630001B6822F0A4029A617B681B681A697B6898
:102640001B6822F010021A617B68DB68012B08D13D
:102650007B681B689A697B681B6842F004029A6178
:1026600030E07B68DB68002B2CD07B68DB68022BBA
:1026700020D07B681B689A697B681B6842F08002E7
:102680009A617B681B681A697B681B6842F01002BC
:102690001A617B68DB68032B14D17B681B689A691D
:1026A0007B681B6842F020029A610BE00C920008E4
:1026B00000A000407B681B689A697B681B6842F039
:1026C00020029A617B689B69013B5A067B68DB6943
:1026D000013B1B021A437B681B6A013B42EA030170
:1026E0007B685B69013B1A047B681B680A43DA61FB
:1026F0007B689B68B3F5407F15D17B689B6A5A1E47
:102700007B68DB6A013B1B021A437B681B6B013B46
:102710001B0142EA03017B685B6A013B1A047B6888
:102720001B680A43DA607B681B6E002B0AD07B684B
:102730001B68D3F8C0107B685A6E7B681B680A431D
:10274000C3F8C0207B68DA6D7B681B6E1344002BD6
:1027500011D07B681B68D3F8C83023F007017B6871
:102760009B6E9B0060333B4453F8542C7B681B6882
:102770000A43C3F8C8207B681B6C002B11D07B6810
:102780001B68D3F8BC3023F007017B685B6C9B00AF
:1027900060333B4453F8542C7B681B680A43C3F8EE
:1027A000BC207B689B6C002B12D07B681B68D3F825
:1027B000BC3023F070017B68DB6C9B0060333B44D2
:1027C00053F8543C1A017B681B680A43C3F8BC20C9
:1027D0007B681B6D002B12D07B681B68D3F8BC3064
:1027E00023F4E0617B685B6D9B0060333B4453F8EE
:1027F000543C1A027B681B680A43C3F8BC207B6800
:102800001B68114A934207D17B685B689A687B68B2
:102810005B6822F003029A607B680022C3F8942070
:102820007B680022C3F89C207B68012283F89820F3
:10283000786800F02DFB034687F85B3097F85B3033
:1028400018466037BD4680BD00A0004080B582B00C
:1028500000AF78607B68002B01D1012316E0786817
:1028600000F070F87B681B68DA6D7B681B6822F0EB
:102870000302DA657868FFF70FFB7B680022C3F874
:102880009C207B68002283F8982000231846083794
:10289000BD4680BD80B485B000AFF860B9607A6095
:1028A0003B60FB6893F89830DBB2012B10D1BB681A
:1028B0001A017B689B001A433B685B0042EA0301F4
:1028C000FB681B68BA690A43C3F88020002308E04C
:1028D000FB68D3F89C3043F00402FB68C3F89C20EB
:1028E000012318461437BD465DF8047B704780B459
:1028F00083B000AF78607B6893F89830DBB2012B2F
:1029000011D17B68022283F898207B681B689A6942
:102910007B681B6822F001029A617B680022C3F881
:102920009C20002308E07B68D3F89C3043F004022D
:102930007B68C3F89C20012318460C37BD465DF820
:10294000047B704780B485B000AF78600023FB60E3
:102950007B6893F89830DBB2022B5BD17B681B68F5
:102960009A697B681B6842F001029A6113E0FB6878
:10297000322B0DD97B68D3F89C3043F001027B6881
:10298000C3F89C207B68032283F8982001234AE047
:10299000FB680133FB607B681B689B6903F00103E4
:1029A000002BE4D00023FB607B681B689A697B687E
:1029B0001B6822F010029A6113E0FB68322B0DD9DC
:1029C0007B68D3F89C3043F001027B68C3F89C20FD
:1029D0007B68032283F89820012324E0FB680133FD
:1029E000FB607B681B689B6903F00803082BE4D03D
:1029F0007B681B689A697B681B6842F002029A61D7
:102A00007B680022C3F894207B68012283F8982019
:102A1000002308E07B68D3F89C3043F008027B6811
:102A2000C3F89C20012318461437BD465DF8047B8B
:102A3000704780B586B000AFF860B9607A60FB6817
:102A400093F89830DBB2022B41D1FB681B68D3F8B6
:102A5000C03003F07C53002B09D1FB68D3F89C30C5
:102A600043F02002FB68C3F89C20012338E0FB6898
:102A70001B68D3F8C43003F40013002B09D0FB68A3
:102A8000D3F89C3043F40072FB68C3F89C20012308
:102A900026E0FB681B68D3F8C4301B0C03F01F034F
:102AA0007B617B697A68B968F86800F077FBFB683E
:102AB0001B6801217A6901FA02F2C3F8D0200122D1
:102AC0007B699A40FB68C3F89420002308E0FB6808
:102AD000D3F89C3043F00802FB68C3F89C20012324
:102AE00018461837BD4680BD80B48BB000AFF86083
:102AF000B9607A603B600023FB61FB6893F8983013
:102B0000FB76FB7E022B40F03B81BB68402B45D11E
:102B1000FB681B68D3F8A03003F4FE03002B09D137
:102B2000FB68D3F89C3043F02002FB68C3F89C207C
:102B300001232EE1FB681B68D3F8A43003F07F0368
:102B4000002B09D1FB68D3F89C3043F48072FB68FA
:102B5000C3F89C2001231CE1FB681B68D3F8A43058
:102B600003F08073B3F1807F03D1FB681B68D3F857
:102B7000A030FB681B68D3F8A4301B0A03F03F03A6
:102B8000FA691344FB61FB685A6FFB685B6CF96977
:102B900001FB03F39B0013447B6261E0BB68412BA4
:102BA00045D1FB681B68D3F8B03003F4FE03002B5B
:102BB00009D1FB68D3F89C3043F02002FB68C3F8CE
:102BC0009C200123E5E0FB681B68D3F8B43003F0D8
:102BD0007F03002B09D1FB68D3F89C3043F480724B
:102BE000FB68C3F89C200123D3E0FB681B68D3F883
:102BF000B43003F08073B3F1807F03D1FB681B68AE
:102C0000D3F8B030FB681B68D3F8B4301B0A03F06C
:102C10003F03FA691344FB61FB689A6FFB68DB6C46
:102C2000F96901FB03F39B0013447B6218E0FB6826
:102C30001B6DBA689A4209D3FB68D3F89C3043F005
:102C40002002FB68C3F89C200123A2E0FB68DA6F36
:102C5000FB685B6DB96801FB03F39B0013447B6267
:102C60007B6A1B6803F080427B685A607B685B6804
:102C7000002B07D17B6A1B689B0CC3F30A027B689D
:102C80001A6005E07B6A1B6823F060427B681A606B
:102C90007B6A1B6803F000527B689A607B6A1B6842
:102CA00003F000427B681A617B6A04337B627B6AB3
:102CB0001B689AB27B68DA617B6A1B6803F4702236
:102CC0007B68DA607B6A1B6803F480127B685A6158
:102CD0007B6A1B6803F400127B689A617B6A1B683D
:102CE0001B0E03F07F027B681A627B6A1B68DA0F97
:102CF0007B685A627B6A04337B627B6A7B61002358
:102D00003B620AE07A693B6A1A4439683B6A0B44C1
:102D100012781A703B6A01333B627B68DB681B0CDC
:102D20001F4AD35C1A463B6A9342EBD3BB68402BE5
:102D300005D1FB681B68FA69C3F8A8201EE0BB68D0
:102D4000412B05D1FB681B68FA69C3F8B82015E070
:102D5000BB681F2B08D8FB681B680121BA6801FA01
:102D600002F2C3F8982009E0BB6803F01F02FB6879
:102D70001B68012101FA02F2C3F89C20002308E03D
:102D8000FB68D3F89C3043F00802FB68C3F89C2032
:102D9000012318462C37BD465DF8047B704700BF01
:102DA0007492000880B485B000AF786039607B68A9
:102DB0001B68D3F89830FB607B681B68D3F89C30A5
:102DC000BB603B681F2B07D8FA683B6822FA03F305
:102DD00003F00103002B0CD03B681F2B0BD93B6881
:102DE00003F01F03BA6822FA03F303F00103002B78
:102DF00001D1002316E03B681F2B08D87B681B68B5
:102E000001213A6801FA02F2C3F8982009E03B6810
:102E100003F01F027B681B68012101FA02F2C3F86C
:102E20009C20012318461437BD465DF8047B70478B
:102E300080B485B000AF786039603B68402B07D123
:102E40007B681B68D3F8A43003F07F03FB6006E0C7
:102E50007B681B68D3F8B43003F07F03FB60FB682A
:102E600018461437BD465DF8047B704780B485B0C2
:102E700000AF78607B681B68D3F8C43003F03F0371
:102E8000FB60FB6818461437BD465DF8047B70474D
:102E900080B485B000AF78607B685B6BBB607B689B
:102EA0001B68D3F88420A74B1340BA6891007A6856
:102EB00012680B43C2F884307B681B68D3F88430F7
:102EC00023F47F017B689B6B1A047B681B680A43B1
:102ED000C3F884207B689B6BBA681344BB607B6833
:102EE0001B68D3F88820974B1340BA6891007A6822
:102EF00012680B43C2F888307B681B68D3F88830AF
:102F000023F4FE017B68DB6B1A047B681B680A43B1
:102F1000C3F888207B68DB6B5B00BA681344BB6036
:102F20007B681B68D3F8A020864B1340BA689100D9
:102F30007A6812680B43C2F8A0307B681B68D3F82C
:102F4000A03023F4FE017B681B6C1A047B681B68AD
:102F50000A43C3F8A0207B681B6C7A68526C02FBA2
:102F600003F3BA681344BB607B681B68D3F8B020D6
:102F7000744B1340BA6891007A6812680B43C2F828
:102F8000B0307B681B68D3F8B03023F4FE017B6857
:102F90009B6C1A047B681B680A43C3F8B0207B68EB
:102FA0009B6C7A68D26C02FB03F3BA681344BB6073
:102FB0007B681B68D3F8AC20624B1340BA68910061
:102FC0007A6812680B43C2F8AC307B681B6D7A6874
:102FD000526D02FB03F3BA681344BB607B681B6845
:102FE000D3F8F020574B1340BA6891007A68126802
:102FF0000B43C2F8F0307B681B68D3F8F03023F441
:103000007C117B689B6D1A047B681B680A43C3F8BC
:10301000F0207B689B6D5B00BA681344BB607B68E3
:103020001B68D3F8C020474B1340BA6891007A68F8
:1030300012680B43C2F8C0307B681B68D3F8C030FD
:1030400023F47C117B68DB6D1A047B681B680A43E0
:10305000C3F8C0207B681B68D3F8C03023F07C51D4
:103060007B681B6E1A067B681B680A43C3F8C02086
:103070007B685A6B344B13449A007B68DA667B6832
:10308000DA6E7B689B6B9B001A447B681A677B68CF
:103090001A6F7B68DB6BDB001A447B685A677B68BE
:1030A0005A6F7B681B6C7968496C01FB03F39B00CA
:1030B0001A447B689A677B689A6F7B689B6C796817
:1030C000C96C01FB03F39B001A447B68DA677B68D9
:1030D000DA6F7B681B6D7968496D01FB03F39B0018
:1030E0001A447B68C3F880207B68D3F880207B6813
:1030F0009B6DDB001A447B68C3F884207B68D3F89F
:1031000084207B68DB6D7968896E01FB03F39B008B
:103110001A447B68C3F888207B68D3F888207B68D2
:103120001B6E7968896E01FB03F39B001A447B6870
:10313000C3F890207B68D3F89030044A934215D9A5
:1031400006E000BF0300FFFF002B0010FCD300408F
:103150007B68D3F89C3043F020027B68C3F89C2046
:103160007B68032283F89820012310E07B68DB6EE4
:10317000FB6005E0FB6800221A60FB680433FB601B
:103180007B68D3F89030FA689A42F3D3002318464C
:103190001437BD465DF8047B704700BF80B489B02A
:1031A00000AFF860B9607A603B60BB685B68002B79
:1031B0000AD1BB681A69BB689B681A43BB681B6865
:1031C0009B041343FB610AE0BB681A69BB689B68F8
:1031D0001A43BB681B68134343F08043FB61BB6821
:1031E0001B6A1A06BB68DB691A43BB689B691A43F2
:1031F000BB685B691A43BB68DB6813433B61FB68D0
:10320000D3F88420FB689B6E396801FB03F39B00B5
:103210001344BB61BB69FA691A60BB690433BB61C3
:10322000BB693A691A60BB690433BB6100237B61E7
:1032300020E07B6903337A6813441B781A067B69A4
:10324000023379680B441B781B041A437B690133F2
:1032500079680B441B781B02134379687A690A4426
:1032600012781A43BB691A60BB690433BB617B697E
:1032700004337B61BB68DB681B0C064AD35C1A46CF
:103280007B699342D5D300BF00BF2437BD465DF8AC
:10329000047B70477492000880B58CB000AF7860F2
:1032A0007B68002B01D101239DE37B681B6803F041
:1032B0000103002B00F08780884B1B6903F0380363
:1032C000FB62864B9B6ABB62FB6A102B07D0FB6AD2
:1032D000182B10D1BB6A03F00303022B0BD17F4BD9
:1032E0001B6803F40033002B6CD07B685B68002BF9
:1032F00068D1012377E37B685B68B3F5803F06D133
:10330000764B1B68754A43F4803313602EE07B686C
:103310005B68002B0CD1714B1B68704A23F480331F
:1033200013606E4B1B686D4A23F4802313601DE00D
:103330007B685B68B3F5A02F0CD1684B1B68674AAC
:1033400043F480231360654B1B68644A43F4803365
:1033500013600BE0614B1B68604A23F480331360F9
:103360005E4B1B685D4A23F4802313607B685B68B7
:10337000002B13D002F088FA786208E002F084FA99
:1033800002467B6AD31A642B01D903232BE3534BE8
:103390001B6803F40033002BF0D014E002F074FA41
:1033A000786208E002F070FA02467B6AD31A642B56
:1033B00001D9032317E3494B1B6803F40033002BA7
:1033C000F0D100E000BF7B681B6803F00203002B14
:1033D00000F08C80414B1B6903F038033B623F4B8C
:1033E0009B6AFB613B6A002B07D03B6A182B37D1E5
:1033F000FB6903F00303002B32D1384B1B6803F049
:103400000403002B05D07B68DB68002B01D101236E
:10341000E9E2324B1B6823F019027B68DB682F4915
:1034200013430B6002F030FA786208E002F02CFAE5
:1034300002467B6AD31A022B01D90323D3E2274B1E
:103440001B6803F00403002BF0D0244B5B6823F0CF
:10345000FE427B681B691B06204913434B6045E015
:103460007B68DB68002B26D01C4B1B6823F01902FD
:103470007B68DB68194913430B6002F005FA786238
:1034800008E002F001FA02467B6AD31A022B01D946
:103490000323A8E2114B1B6803F00403002BF0D0B8
:1034A0000E4B5B6823F0FE427B681B691B060B49D1
:1034B00013434B601AE0094B1B68084A23F00103D1
:1034C000136002F0E1F978620AE002F0DDF90246E9
:1034D0007B6AD31A022B03D9032384E200440258E7
:1034E000964B1B6803F00403002BEED17B681B682E
:1034F00003F01003002B6AD0904B1B6903F03803D4
:10350000BB618E4B9B6A7B61BB69082B07D0BB6993
:10351000182B1BD17B6903F00303012B16D1874BBA
:103520001B6803F48073002B05D07B68DB69802B5C
:1035300001D0012357E2814BDB6823F07C527B688A
:103540001B6A1B067D491343CB6040E07B68DB6947
:10355000002B23D0794B1B68784A43F0800313601B
:1035600002F092F9786208E002F08EF902467B6A76
:10357000D31A022B01D9032335E2704B1B6803F4E5
:103580008073002BF0D06D4BDB6823F07C527B689E
:103590001B6A1B0669491343CB6018E0674B1B6825
:1035A000664A23F08003136002F06EF9786208E047
:1035B00002F06AF902467B6AD31A022B01D903236F
:1035C00011E25E4B1B6803F48073002BF0D17B6823
:1035D0001B6803F00803002B36D07B685B69002B67
:1035E00019D0564B5B6F554A43F00103536702F005
:1035F0004BF9786208E002F047F902467B6AD31A79
:10360000022B01D90323EEE14C4B5B6F03F0020365
:10361000002BF0D018E0494B5B6F484A23F00103C0
:10362000536702F031F9786208E002F02DF90246A2
:103630007B6AD31A022B01D90323D4E13F4B5B6F82
:1036400003F00203002BF0D17B681B6803F020031A
:10365000002B36D07B689B69002B19D0374B1B6839
:10366000364A43F48053136002F00EF9786208E0A2
:1036700002F00AF902467B6AD31A022B01D903230E
:10368000B1E12E4B1B6803F40053002BF0D018E07F
:103690002A4B1B68294A23F48053136002F0F4F884
:1036A000786208E002F0F0F802467B6AD31A022B37
:1036B00001D9032397E1214B1B6803F40053002B2E
:1036C000F0D17B681B6803F00403002B00F08680B8
:1036D0001B4B1B681A4A43F48073136002F0D4F842
:1036E000786208E002F0D0F802467B6AD31A642BB5
:1036F00001D9032377E1124B1B6803F48073002B7D
:10370000F0D07B689B68012B06D10C4B1B6F0B4ADA
:1037100043F00103136732E07B689B68002B11D1F3
:10372000064B1B6F054A23F001031367034B1B6F06
:10373000024A23F00403136721E000BF004402584B
:10374000004802587B689B68052B0CD1834B1B6F8C
:10375000824A43F004031367804B1B6F7F4A43F098
:10376000010313670BE07D4B1B6F7C4A23F00103C1
:1037700013677A4B1B6F794A23F0040313677B6846
:103780009B68002B15D002F07FF878620AE002F007
:103790007BF802467B6AD31A41F28832934201D900
:1037A000032320E16D4B1B6F03F00203002BEED0CF
:1037B00014E002F069F878620AE002F065F8024667
:1037C0007B6AD31A41F28832934201D903230AE17A
:1037D000624B1B6F03F00203002BEED17B685B6A28
:1037E000002B00F0FF805D4B1B6903F03803182BA2
:1037F00000F0BA807B685B6A022B40F09580574BE3
:103800001B68564A23F08073136002F03DF878621B
:1038100008E002F039F802467B6AD31A022B01D97C
:103820000323E0E04D4B1B6803F00073002BF0D145
:103830004A4B9A6A4A4B13407A68916A7A68D26A0C
:1038400012010A43454913438B627B681B6B013BA2
:10385000C3F308027B685B6B013B5B029BB21A43BC
:103860007B689B6B013B1B0403F4FE031A437B68DC
:10387000DB6B013B1B0603F0FE43384913430B632C
:10388000364BDB6A354A23F00103D362334B5A6B64
:10389000344B13407A68926CD200304913434B6327
:1038A0002E4BDB6A23F00C027B681B6C2B49134305
:1038B000CB622A4BDB6A23F002027B685B6C2749F0
:1038C0001343CB62254BDB6A244A43F48033D36233
:1038D000224BDB6A214A43F40033D3621F4BDB6A7D
:1038E0001E4A43F48023D3621C4BDB6A1B4A43F01D
:1038F0000103D362194B1B68184A43F080731360AD
:1039000001F0C2FF786208E001F0BEFF02467B6A68
:10391000D31A022B01D9032365E0104B1B6803F077
:103920000073002BF0D05DE00C4B1B680B4A23F0BA
:103930008073136001F0A8FF786208E001F0A4FF33
:1039400002467B6AD31A022B01D903234BE0034BB7
:103950001B6803F00073002BF0D143E000440258D1
:103960000CFCFFFF0700FFFF214B9B6A3B61204BD4
:103970001B6BFB607B685B6A012B31D03B6903F0FA
:1039800003027B689B6A9A422AD13B691B0903F0B8
:103990003F027B68DB6A9A4222D1FB68C3F30802CC
:1039A0007B681B6B013B9A421AD1FB685B0A03F0F0
:1039B0007F027B685B6B013B9A4211D1FB681B0C59
:1039C00003F07F027B689B6B013B9A4208D1FB6846
:1039D0001B0E03F07F027B68DB6B013B9A4201D038
:1039E000012300E0002318463037BD4680BD00BFEC
:1039F0000044025880B586B000AF786039607B68BB
:103A0000002B01D101239CE18A4B1B6803F00F03BB
:103A10003A689A4210D9874B1B6823F00F028549F8
:103A20003B6813430B60834B1B6803F00F033A683A
:103A30009A4201D0012384E17B681B6803F00403F0
:103A4000002B10D07B681A697B4B9B6903F07003D5
:103A50009A4208D9784B9B6923F070027B681B69F6
:103A6000754913438B617B681B6803F00803002BC7
:103A700010D07B685A69704BDB6903F070039A427F
:103A800008D96D4BDB6923F070027B685B696A497A
:103A90001343CB617B681B6803F01003002B10D02D
:103AA0007B689A69644BDB6903F4E0639A4208D946
:103AB000614BDB6923F4E0627B689B695E491343D9
:103AC000CB617B681B6803F02003002B10D07B6860
:103AD000DA69594B1B6A03F070039A4208D9564BB6
:103AE0001B6A23F070027B68DB69534913430B6246
:103AF0007B681B6803F00203002B10D07B68DA6838
:103B00004D4B9B6903F00F039A4208D94A4B9B69BE
:103B100023F00F027B68DB68474913438B617B68A6
:103B20001B6803F00103002B55D0434B9B6923F422
:103B300070627B689B68404913438B617B685B685C
:103B4000022B07D13C4B1B6803F40033002B21D11F
:103B50000123F6E07B685B68032B07D1364B1B68BB
:103B600003F00073002B15D10123EAE07B685B684A
:103B7000012B07D1304B1B6803F48073002B09D154
:103B80000123DEE02C4B1B6803F00403002B01D162
:103B90000123D6E0284B1B6923F007027B685B6892
:103BA000254913430B6101F06FFE78610AE001F0D3
:103BB0006BFE02467B69D31A41F28832934201D9E7
:103BC0000323BEE01C4B1B6903F038027B685B6873
:103BD000DB009A42EBD17B681B6803F00203002BE9
:103BE00010D07B68DA68144B9B6903F00F039A428C
:103BF00008D2114B9B6923F00F027B68DB680E49EA
:103C000013438B610B4B1B6803F00F033A689A4216
:103C100014D2084B1B6823F00F0206493B6813437C
:103C20000B60044B1B6803F00F033A689A4205D0FF
:103C3000012386E000200052004402587B681B6884
:103C400003F00403002B10D07B681A693F4B9B697B
:103C500003F070039A4208D23C4B9B6923F0700238
:103C60007B681B69394913438B617B681B6803F0D0
:103C70000803002B10D07B685A69344BDB6903F0D2
:103C800070039A4208D2314BDB6923F070027B68E3
:103C90005B692E491343CB617B681B6803F01003FB
:103CA000002B10D07B689A69284BDB6903F4E06332
:103CB0009A4208D2254BDB6923F4E0627B689B695A
:103CC00022491343CB617B681B6803F02003002B60
:103CD00010D07B68DA691D4B1B6A03F070039A42AF
:103CE00008D21A4B1B6A23F070027B68DB69174904
:103CF00013430B6200F034F80246144B9B691B0A15
:103D000003F00F031249CB5C03F01F0322FA03F305
:103D10003B610E4B9B6903F00F030D4AD35C03F02C
:103D20001F033A6922FA03F30A4A13600A4A3B69FD
:103D300013600A4B1B681846FEF716F90346FB731F
:103D4000FB7B18461837BD4680BD00BF00440258B3
:103D500084920008500000244C00002440000024FD
:103D600080B489B000AFB34B1B6903F03803182B44
:103D700000F2558101A252F823F000BFE13D000896
:103D80001F4000081F4000081F4000081F40000897
:103D90001F4000081F4000081F400008073E0008A1
:103DA0001F4000081F4000081F4000081F40000877
:103DB0001F4000081F4000081F4000080D3E00087B
:103DC0001F4000081F4000081F4000081F40000857
:103DD0001F4000081F4000081F400008133E000855
:103DE000944B1B6803F02003002B09D0914B1B68F8
:103DF000DB0803F00303904A22FA03F3BB6111E1ED
:103E00008D4BBB610EE18D4BBB610BE18C4BBB61FC
:103E100008E1884B9B6A03F003037B61854B9B6A37
:103E20001B0903F03F033B61824BDB6A03F0010394
:103E3000FB60804B5B6BDB08C3F30C03FA6802FB8F
:103E400003F307EE903AF8EE677AC7ED027A3B6922
:103E5000002B00F0E1807B69022B00F083807B69FE
:103E6000022B00F2A1807B69002B03D07B69012B20
:103E700056D099E06F4B1B6803F02003002B2DD028
:103E80006C4B1B68DB0803F003036B4A22FA03F355
:103E90007B607B6807EE903AF8EE676A3B6907EE55
:103EA000903AF8EE677A86EEA77A624B1B6BC3F303
:103EB000080307EE903AF8EE676A97ED026ADFEDC5
:103EC000615AC6EE257A76EEA77AF7EE006A77EEAB
:103ED000A67A67EE277AC7ED077A87E03B6907EE97
:103EE000903AF8EE677ADFED586A86EEA77A514B82
:103EF0001B6BC3F3080307EE903AF8EE676A97ED81
:103F0000026ADFED505AC6EE257A76EEA77AF7EE12
:103F1000006A77EEA67A67EE277AC7ED077A65E042
:103F20003B6907EE903AF8EE677ADFED486A86EE75
:103F3000A77A404B1B6BC3F3080307EE903AF8EEE9
:103F4000676A97ED026ADFED3F5AC6EE257A76EE94
:103F5000A77AF7EE006A77EEA67A67EE277AC7EDC2
:103F6000077A43E03B6907EE903AF8EE677ADFEDB7
:103F7000386A86EEA77A2F4B1B6BC3F3080307EE54
:103F8000903AF8EE676A97ED026ADFED2E5AC6EEB8
:103F9000257A76EEA77AF7EE006A77EEA67A67EED4
:103FA000277AC7ED077A21E03B6907EE903AF8EEF1
:103FB000677ADFED266A86EEA77A1E4B1B6BC3F38A
:103FC000080307EE903AF8EE676A97ED026ADFEDB4
:103FD0001D5AC6EE257A76EEA77AF7EE006A77EEDE
:103FE000A67A67EE277AC7ED077A00BF114B1B6BE5
:103FF0005B0A03F07F0301333B603B6807EE903AB6
:10400000B8EE677AD7ED076AC6EE877AFCEEE77AF4
:1040100017EE903ABB6105E00023BB6102E0074B5D
:10402000BB6100BFBB6918462437BD465DF8047B01
:10403000704700BF004402580090D00300093D00C3
:1040400040787D01000000460024744C0024744A2E
:1040500020BCBE4B80B582B000AFFFF781FE0246A8
:10406000104B9B691B0A03F00F030F49CB5C03F055
:104070001F0322FA03F37B600A4B9B6903F00F03D3
:10408000094AD35C03F01F037A6822FA03F3074A54
:104090001360074A7B681360044B1B681846083797
:1040A000BD4680BD004402588492000850000024A0
:1040B0004C00002480B500AFFFF7CCFF0246064B52
:1040C000DB691B0903F007030449CB5C03F01F0302
:1040D00022FA03F3184680BD004402588492000877
:1040E00080B483B000AF786039607B683F221A608B
:1040F0001A4B1B6903F007027B685A60174B9B69D8
:1041000003F470627B689A60144B9B6903F00F02A2
:104110007B68DA60114B9B6903F070027B681A615F
:104120000E4BDB6903F070027B685A610B4BDB6955
:1041300003F4E0627B689A61084B1B6A03F070022B
:104140007B68DA61064B1B6803F00F023B681A605C
:1041500000BF0C37BD465DF8047B70470044025831
:104160000020005280B586B000AF78600023FB7558
:104170000023BB757B681B6803F00063002B3FD0F6
:104180007B681B6EB3F5401F2AD0B3F5401F24D8BF
:10419000B3F5001F18D0B3F5001F1ED8002B03D0B5
:1041A000B3F5801F07D018E0A44BDB6AA34A43F4A1
:1041B0000033D36215E07B6804330221184600F017
:1041C000CBFE0346FB750CE07B68243302211846C6
:1041D00000F074FF0346FB7503E00123FB7500E06C
:1041E00000BFFB7D002B09D1944B1B6D23F44012C3
:1041F0007B681B6E914913430B6501E0FB7DBB752A
:104200007B681B6803F48073002B3DD07B685B6D7B
:10421000042B26D801A252F823F000BF3142000837
:104220003F42000851420008694200086942000804
:10423000824BDB6A814A43F40033D36215E07B682A
:1042400004330021184600F087FE0346FB750CE09E
:104250007B6824330021184600F030FF0346FB75CD
:1042600003E00123FB7500E000BFFB7D002B09D1BB
:10427000724B1B6D23F007027B685B6D6F49134324
:104280000B6501E0FB7DBB757B681B6803F48063F5
:10429000002B51D07B68D3F8A030B3F5200F36D077
:1042A000B3F5200F30D8B3F5000F32D0B3F5000FBF
:1042B0002AD8B3F5C00F2ED0B3F5C00F24D8B3F56C
:1042C000800F18D0B3F5800F1ED8002B03D0B3F5A4
:1042D000001F07D018E0594BDB6A584A43F40033FB
:1042E000D36219E07B6804330021184600F034FEE5
:1042F0000346FB7510E07B6824330021184600F06C
:10430000DDFE0346FB7507E00123FB7504E000BFFB
:1043100002E000BF00E000BFFB7D002B0AD1474B4D
:104320009B6D23F460027B68D3F8A03043491343AC
:104330008B6501E0FB7DBB757B681B6803F4006344
:10434000002B51D07B68D3F8A430B3F1A06F36D0E6
:10435000B3F1A06F30D8B3F1806F32D0B3F1806F7A
:104360002AD8B3F1407F2ED0B3F1407F24D8B3F1E7
:10437000007F18D0B3F1007F1ED8002B03D0B3F11B
:10438000807F07D018E02D4BDB6A2C4A43F40033C2
:10439000D36219E07B6804330021184600F0DCFD8D
:1043A0000346FB7510E07B6824330021184600F0BB
:1043B00085FE0346FB7507E00123FB7504E000BFA3
:1043C00002E000BF00E000BFFB7D002B0AD11B4BC9
:1043D0009B6D23F0E0627B68D3F8A4301749134348
:1043E0008B6501E0FB7DBB757B681B6803F0007388
:1043F000002B35D07B689B6C302B1CD0302B17D812
:10440000202B0CD0202B13D8002B19D0102B0FD120
:104410000A4BDB6A094A43F40033D36211E07B683C
:1044200004330221184600F097FD0346FB7508E0AF
:104430000123FB7505E000BF03E000BF0044025804
:1044400000BFFB7D002B09D1A34BDB6C23F03002B6
:104450007B689B6CA0491343CB6401E0FB7DBB757B
:104460007B681B6803F48053002B47D07B689B6DEF
:10447000B3F5804F30D0B3F5804F2AD8B3F5405F05
:104480002CD0B3F5405F24D8B3F5005F18D0B3F556
:10449000005F1ED8002B03D0B3F5805F07D018E073
:1044A0008D4BDB6A8C4A43F40033D36217E07B68A0
:1044B00004330021184600F04FFD0346FB750EE063
:1044C0007B6824330021184600F0F8FD0346FB7595
:1044D00005E00123FB7502E000BF00E000BFFB7DAB
:1044E000002B09D17C4B1B6D23F4E0427B689B6D54
:1044F000794913430B6501E0FB7DBB757B681B6845
:1045000003F40053002B49D07B68DB6DB3F5A02F7B
:104510002ED0B3F5A02F28D8B3F5802F2AD0B3F52D
:10452000802F22D8B3F5403F26D0B3F5403F1CD8AA
:10453000B3F5003F10D0B3F5003F16D8002B1DD0C7
:10454000B3F5803F11D17B6804330121184600F098
:1045500003FD0346FB7512E07B68243301211846F6
:1045600000F0ACFD0346FB7509E00123FB7506E096
:1045700000BF04E000BF02E000BF00E000BFFB7D21
:10458000002B09D1544B1B6D23F4E0227B68DB6DBB
:10459000514913430B6501E0FB7DBB757B681B68CC
:1045A00003F48043002B4BD07B68D3F8A830B3F1E1
:1045B000A04F2ED0B3F1A04F28D8B3F1804F2AD00E
:1045C000B3F1804F22D8B3F1405F26D0B3F1405F02
:1045D0001CD8B3F1005F10D0B3F1005F16D8002BE8
:1045E0001DD0B3F1805F11D17B68043301211846DF
:1045F00000F0B2FC0346FB7512E07B682433012116
:10460000184600F05BFD0346FB7509E00123FB75CE
:1046100006E000BF04E000BF02E000BF00E000BF12
:10462000FB7D002B0AD12C4B9B6D23F0E0427B6875
:10463000D3F8A830284913438B6501E0FB7DBB7597
:104640007B681B6803F40043002B2FD07B689B6EB4
:10465000B3F1005F0ED0B3F1005F14D8002B15D07A
:10466000B3F1805F0FD11C4BDB6A1B4A43F400336C
:10467000D3620CE07B6804330121184600F06CFC27
:104680000346FB7503E00123FB7500E000BFFB7DE3
:10469000002B09D1104B1B6D23F040527B689B6EA1
:1046A0000D4913430B6501E0FB7DBB757B681B68FF
:1046B00003F08073002B34D07B685B6C032B1DD818
:1046C00001A252F823F000BF03470008DD460008AE
:1046D000EB4600080347000800440258B14BDB6A70
:1046E000B04A43F40033D3620CE07B680433022108
:1046F000184600F031FC0346FB7503E00123FB750F
:1047000000E000BFFB7D002B09D1A64BDB6C23F042
:1047100003027B685B6CA3491343CB6401E0FB7D20
:10472000BB757B681B6803F48003002B00F0868058
:104730009D4B1B689C4A43F48073136001F0A4F8FE
:10474000386109E001F0A0F802463B69D31A642BF6
:1047500002D90323FB7505E0934B1B6803F48073B8
:10476000002BEFD0FB7D002B66D18E4B1A6F7B6840
:10477000D3F8AC30534003F44073002B13D0894B73
:104780001B6F23F44073FB60864B1B6F854A43F419
:1047900080331367834B1B6F824A23F48033136784
:1047A000804AFB6813677B68D3F8AC30B3F5807F31
:1047B00015D101F069F838610BE001F065F80246A7
:1047C0003B69D31A41F28832934202D90323FB7525
:1047D00005E0744B1B6F03F00203002BEDD0FB7D53
:1047E000002B26D17B68D3F8AC3003F44073B3F5CB
:1047F000407F0DD16B4B1B6923F47C527B68D3F84F
:10480000AC301909694B0B40664913430B6105E055
:10481000644B1B69634A23F47C531361614B1A6F29
:104820007B68D3F8AC30C3F30B035E4913430B67CB
:1048300004E0FB7DBB7501E0FB7DBB757B681B68FD
:1048400003F00103002B7ED07B685B6F282B67D8B9
:1048500001A252F823F000BF2749000821490008AF
:104860002149000821490008214900082149000880
:104870002149000821490008FD4800082149000895
:104880002149000821490008214900082149000860
:1048900021490008214900080F4900082149000862
:1048A0002149000821490008214900082149000840
:1048B000214900082149000827490008214900082A
:1048C0002149000821490008214900082149000820
:1048D000214900082149000827490008214900080A
:1048E0002149000821490008214900082149000800
:1048F0002149000821490008274900087B68043342
:104900000121184600F028FB0346FB750CE07B688C
:1049100024330121184600F0D1FB0346FB7503E068
:104920000123FB7500E000BFFB7D002B09D11D4B6F
:104930005B6D23F038027B685B6F1A4913434B654C
:1049400001E0FB7DBB757B681B6803F00203002B55
:104950003ED07B681B6F052B20D801A252F823F0B4
:10496000B1490008794900088B490008B14900089D
:10497000B1490008B14900087B6804330121184699
:1049800000F0EAFA0346FB7513E07B68243301214B
:10499000184600F093FB0346FB750AE00123FB7504
:1049A00007E000BF0044025800480258CFFFFF0054
:1049B00000BFFB7D002B09D19F4B5B6D23F00702ED
:1049C0007B681B6F9C4913434B6501E0FB7DBB7506
:1049D0007B681B6803F00403002B39D07B68D3F895
:1049E0008C30052B20D801A252F823F02F4A000862
:1049F000054A0008174A00082F4A00082F4A0008F5
:104A00002F4A00087B6804330121184600F0A4FAFD
:104A10000346FB750CE07B6824330121184600F047
:104A20004DFB0346FB7503E00123FB7500E000BF6F
:104A3000FB7D002B0AD1804B9B6D23F007027B6826
:104A4000D3F88C307C4913438B6501E0FB7DBB754B
:104A50007B681B6803F02003002B4BD07B68D3F8E6
:104A60008830B3F1A04F2ED0B3F1A04F28D8B3F1C6
:104A7000804F2AD0B3F1804F22D8B3F1405F26D0C7
:104A8000B3F1405F1CD8B3F1005F10D0B3F1005F09
:104A900016D8002B1DD0B3F1805F11D17B68043391
:104AA0000021184600F058FA0346FB7512E07B68B7
:104AB00024330221184600F001FB0346FB7509E090
:104AC0000123FB7506E000BF04E000BF02E000BF69
:104AD00000E000BFFB7D002B0AD1574B5B6D23F03C
:104AE000E0427B68D3F88830534913434B6501E0BB
:104AF000FB7DBB757B681B6803F04003002B4BD02C
:104B00007B68D3F89430B3F5A05F2ED0B3F5A05FE7
:104B100028D8B3F5805F2AD0B3F5805F22D8B3F5EB
:104B2000406F26D0B3F5406F1CD8B3F5006F10D09E
:104B3000B3F5006F16D8002B1DD0B3F5806F11D1DF
:104B40007B6804330021184600F006FA0346FB7523
:104B500012E07B6824330221184600F0AFFA0346C6
:104B6000FB7509E00123FB7506E000BF04E000BF10
:104B700002E000BF00E000BFFB7D002B0AD12E4BFE
:104B80009B6D23F4E0527B68D3F894302A49134399
:104B90008B6501E0FB7DBB757B681B6803F08003C0
:104BA000002B4DD07B68D3F89830B3F5204F2ED032
:104BB000B3F5204F28D8B3F5004F2AD0B3F5004FF6
:104BC00022D8B3F5C04F26D0B3F5C04F1CD8B3F5EB
:104BD000804F10D0B3F5804F16D8002B1DD0B3F501
:104BE000005F11D17B6804330021184600F0B4F94E
:104BF0000346FB7512E07B6824330221184600F05F
:104C00005DFA0346FB7509E00123FB7506E000BF72
:104C100004E000BF02E000BF00E000BFFB7D002B0E
:104C20000CD1054B9B6D23F460427B68D3F8983020
:104C3000014913438B6503E000440258FB7DBB75BB
:104C40007B681B6803F00803002B18D07B68DB6FC0
:104C5000B3F5805F0AD17B6824330221184600F047
:104C60002DFA0346002B01D00123BB758A4B5B6DE7
:104C700023F440527B68DB6F874913434B657B68A5
:104C80001B6803F01003002B1AD07B68D3F8903018
:104C9000B3F5807F0AD17B6824330221184600F0E7
:104CA0000DFA0346002B01D00123BB757A4B9B6D97
:104CB00023F440727B68D3F89030774913438B65B7
:104CC0007B681B6803F40023002B34D07B68D3F887
:104CD0009C30B3F5003F1DD0B3F5003F17D8002B33
:104CE00003D0B3F5803F09D011E07B680433002185
:104CF000184600F031F90346FB750CE07B6824335D
:104D00000221184600F0DAF90346FB7503E001239F
:104D1000FB7500E000BFFB7D002B0AD15E4B9B6D55
:104D200023F440327B68D3F89C305B4913438B6596
:104D300001E0FB7DBB757B681B6803F48023002BBF
:104D400033D07B68D3F88030B3F5401F1CD0B3F567
:104D5000401F16D8B3F5801F03D0B3F5001F07D04E
:104D60000FE04D4BDB6A4C4A43F40033D3620CE056
:104D70007B6824330121184600F0A0F90346FB7537
:104D800003E00123FB7500E000BFFB7D002B0AD18F
:104D9000414B5B6D23F440127B68D3F880303E4971
:104DA00013434B6501E0FB7DBB757B681B6803F417
:104DB0008033002B29D07B68DB6C002B03D0B3F54C
:104DC000803F07D00FE0344BDB6A334A43F40033B3
:104DD000D3620BE07B6804330221184600F0BCF874
:104DE0000346FB7502E00123FB7500BFFB7D002B32
:104DF00009D1294BDB6C23F480327B68DB6C2649BC
:104E00001343CB6401E0FB7DBB757B681B6803F03B
:104E10000053002B0AD07B6824330221184600F08F
:104E20004DF90346002B01D00123BB757B681B683D
:104E300003F40033002B33D07B689B6FB3F5407FC6
:104E400017D0B3F5407F11D8B3F5007F13D0B3F579
:104E5000007F0BD8002B10D0B3F5807F06D10E4B0E
:104E6000DB6A0D4A43F40033D36207E00123FB758C
:104E700004E000BF02E000BF00E000BFFB7D002BAC
:104E80000CD1054B5B6D23F440727B689B6F02492C
:104E900013434B6504E000BF00440258FB7DBB7523
:104EA0007B681B6803F48013002B08D0294B1B6D13
:104EB00023F000427B68DB6E264913430B657B6859
:104EC0001B6803F40013002B08D0224B1B6D23F04A
:104ED00080727B685B6E1F4913430B657B681B68A0
:104EE00003F08043002B0DD01A4B1B69194A23F4A1
:104EF00000431361174B1A697B68D3F8B03015492A
:104F000013430B617B681B68002B08DA114BDB6CC9
:104F100023F040527B681B6D0E491343CB647B68C2
:104F20001B6803F40003002B09D00A4B5B6D23F4CC
:104F300040027B68D3F88430064913434B65BB7D40
:104F4000002B01D1002300E0012318461837BD468D
:104F500080BD00BF0044025880B584B000AF7860C7
:104F600039600023FB73534B9B6A03F00303032B4D
:104F700001D1012399E04F4B1B684E4A23F0806317
:104F8000136000F081FCB86008E000F07DFC024690
:104F9000BB68D31A022B01D9032386E0454B1B685B
:104FA00003F00063002BF0D1424B9B6A23F47C3268
:104FB0007B681B681B033F4913438B627B685B68FC
:104FC000013BC3F308027B689B68013B5B029BB219
:104FD0001A437B68DB68013B1B0403F4FE031A439E
:104FE0007B681B69013B1B0603F0FE4331491343F9
:104FF0008B63304BDB6A23F0C0027B685B692D4911
:105000001343CB622B4BDB6A23F020027B689B6946
:1050100028491343CB62274BDB6A264A23F010034F
:10502000D362244BDA6B244B13407A68D269D200E6
:1050300020491343CB631F4BDB6A1E4A43F0100326
:10504000D3623B68002B06D11A4BDB6A194A43F442
:105050000023D3620FE03B68012B06D1154BDB6ABE
:10506000144A43F48013D36205E0124BDB6A114A01
:1050700043F40013D3620F4B1B680E4A43F0806366
:10508000136000F001FCB86008E000F0FDFB024690
:10509000BB68D31A022B01D9032306E0054B1B681A
:1050A00003F00063002BF0D0FB7B18461037BD46A1
:1050B00080BD00BF004402580700FFFF80B584B0E8
:1050C00000AF786039600023FB73534B9B6A03F099
:1050D0000303032B01D1012399E04F4B1B684E4A78
:1050E00023F08053136000F0CFFBB86008E000F0BD
:1050F000CBFB0246BB68D31A022B01D9032386E0FF
:10510000454B1B6803F00053002BF0D1424B9B6AC8
:1051100023F07C727B681B681B053F4913438B623D
:105120007B685B68013BC3F308027B689B68013BBB
:105130005B029BB21A437B68DB68013B1B0403F4F0
:10514000FE031A437B681B69013B1B0603F0FE4309
:10515000314913430B64304BDB6A23F440627B68B4
:105160005B692D491343CB622B4BDB6A23F400723E
:105170007B689B6928491343CB62274BDB6A264A2D
:1051800023F48073D362244B5A6C244B13407A6807
:10519000D269D200204913434B641F4BDB6A1E4A7D
:1051A00043F48073D3623B68002B06D11A4BDB6A51
:1051B000194A43F48003D3620FE03B68012B06D108
:1051C000154BDB6A144A43F40003D36205E0124B2B
:1051D000DB6A114A43F08073D3620F4B1B680E4A9F
:1051E00043F08053136000F04FFBB86008E000F01C
:1051F0004BFB0246BB68D31A022B01D9032306E0FE
:10520000054B1B6803F00053002BF0D0FB7B1846C6
:105210001037BD4680BD00BF004402580700FFFFA5
:1052200080B489B000AF786039600023FB61864BA1
:105230007B618CE13B681A680121FB6901FA03F389
:1052400013403B613B69002B00F07E813B685B684B
:1052500003F00303012B05D03B685B6803F00303F5
:10526000022B30D17B689B68BB61FB695B0003222A
:1052700002FA03F3DB43BA691340BB613B68DA68A7
:10528000FB695B0002FA03F3BA691343BB617B68F5
:10529000BA699A607B685B68BB610122FB6902FAAC
:1052A00003F3DB43BA691340BB613B685B681B09CE
:1052B00003F00102FB6902FA03F3BA691343BB610D
:1052C0007B68BA695A603B685B6803F00303032B91
:1052D00017D07B68DB68BB61FB695B00032202FAC5
:1052E00003F3DB43BA691340BB613B689A68FB690F
:1052F0005B0002FA03F3BA691343BB617B68BA69C6
:10530000DA603B685B6803F00303022B23D1FB697F
:10531000DA087B68083253F82230BB61FB6903F07E
:1053200007039B000F2202FA03F3DB43BA69134021
:10533000BB613B681A69FB6903F007039B0002FA33
:1053400003F3BA691343BB61FB69DA087B6808326F
:10535000B96943F822107B681B68BB61FB695B007D
:10536000032202FA03F3DB43BA691340BB613B68D3
:105370005B6803F00302FB695B0002FA03F3BA699E
:105380001343BB617B68BA691A603B685B6803F4CE
:105390004033002B00F0D8802C4BD3F8F4302B4A4C
:1053A00043F00203C2F8F430284BD3F8F43003F092
:1053B0000203FB60FB68264AFB699B08023352F834
:1053C0002330BB61FB6903F003039B000F2202FA49
:1053D00003F3DB43BA691340BB617B681D4A934208
:1053E0004AD07B681C4A93422BD07B681B4A93426D
:1053F00025D07B681A4A93421FD07B68194A934292
:1054000019D07B68184A934213D07B68174A93429D
:105410000DD07B68164A934207D07B68154A9342A9
:1054200001D1092329E00A2327E0072325E00623E9
:1054300023E0052321E004231FE003231DE00223D2
:105440001BE0012319E000BF80000058004402580F
:1054500000040058000002580004025800080258D6
:10546000000C02580010025800140258001802588C
:10547000001C0258002402580023FA6902F00302BB
:1054800092009340BA691343BB613849FB699B089A
:105490000233BA6941F823204FF0B0431B68BB6167
:1054A0003B69DB43BA691340BB613B685B6803F44B
:1054B0008013002B03D0BA693B691343BB614FF0E3
:1054C000B042BB6913604FF0B0435B68BB613B699E
:1054D000DB43BA691340BB613B685B6803F40013AC
:1054E000002B03D0BA693B691343BB614FF0B04254
:1054F000BB6953607B695B68BB613B69DB43BA692D
:105500001340BB613B685B6803F40033002B03D09E
:10551000BA693B691343BB617B69BA695A607B69AD
:105520001B68BB613B69DB43BA691340BB613B68E5
:105530005B6803F48033002B03D0BA693B691343E3
:10554000BB617B69BA691A60FB690133FB613B6827
:105550001A68FB6922FA03F3002B7FF46BAE00BFDD
:1055600000BF2437BD465DF8047B70470004005837
:1055700080B487B000AF7860396000237B61724BE4
:105580003B61D3E001227B6902FA03F33A681340DE
:10559000FB60FB68002B00F0C6806C4A7B699B08AF
:1055A000023352F82330BB607B6903F003039B0096
:1055B0000F2202FA03F3BA681340BB607B68644AA7
:1055C000934231D07B68634A93422BD07B68624A16
:1055D000934225D07B68614A93421FD07B68604A22
:1055E000934219D07B685F4A934213D07B685E4A2E
:1055F00093420DD07B685D4A934207D07B685C4A3A
:10560000934201D1092310E00A230EE007230CE0A6
:1056100006230AE0052308E0042306E0032304E050
:10562000022302E0012300E000237A6902F0030272
:1056300092009340BA689A4236D13B691A68FB6877
:10564000DB431A403B691A603B695A68FB68DB43DD
:105650001A403B695A604FF0B0435A68FB68DB431D
:105660004FF0B04113404B604FF0B0431A68FB68F5
:10567000DB434FF0B04113400B607B6903F0030341
:105680009B000F2202FA03F3BB60304A7B699B0840
:10569000023352F82310BB68DA432C487B699B081D
:1056A0000A40023340F823207B681A687B695B005C
:1056B000032101FA03F31A437B681A607B69DA0855
:1056C0007B68083253F822107B6903F007039B00C4
:1056D0000F2202FA03F3DB437A69D20819407B6890
:1056E000083243F822107B68DA687B695B0003218B
:1056F00001FA03F3DB431A407B68DA607B685A687F
:1057000001217B6901FA03F3DB431A407B685A608D
:105710007B689A687B695B00032101FA03F3DB4332
:105720001A407B689A607B6901337B613A687B69C8
:1057300022FA03F3002B7FF425AF00BF00BF1C3714
:10574000BD465DF8047B7047800000580004005897
:10575000000002580004025800080258000C0258C9
:10576000001002580014025800180258001C025879
:105770000024025880B584B000AF7860194BDB6814
:1057800003F00403042B0AD0164BDB6803F0070375
:105790007A689A4201D001231FE000231DE0114BDB
:1057A000DB6823F007020F497B681343CB6000F0EE
:1057B0006BF8F86009E000F067F80246FB68D31A5E
:1057C000B3F57A7F01D9012307E0064B5B6803F448
:1057D0000053B3F5005FEED1002318461037BD46E5
:1057E00080BD00BF0048025880B582B000AF0320E2
:1057F000FCF71BFEFEF7B4FA0246154B9B691B0A29
:1058000003F00F031349CB5C03F01F0322FA03F3E9
:105810007B600F4B9B6903F00F030E4AD35C03F0D0
:105820001F037A6822FA03F30B4A13600B4A7B6862
:1058300013600F20FCF798FB0346002B01D00123D7
:1058400002E0FCF7EBF9002318460837BD4680BD9F
:105850000044025884920008500000244C000024A8
:1058600080B400AF064B1B781A46064B1B681344E6
:10587000044A136000BFBD465DF8047B704700BF5B
:1058800044000024BC04002480B400AF034B1B6818
:105890001846BD465DF8047B704700BFBC04002479
:1058A00080B582B000AF78607B68002B01D1012306
:1058B00049E07B6893F83D30DBB2002B06D17B6872
:1058C000002283F83C20786800F041F87B680222CF
:1058D00083F83D207B681A687B68043319461046BC
:1058E00000F00EFA7B68012283F848207B680122D1
:1058F00083F83E207B68012283F83F207B680122E9
:1059000083F840207B68012283F841207B680122D4
:1059100083F842207B68012283F843207B680122C0
:1059200083F844207B68012283F845207B680122AC
:1059300083F846207B68012283F847207B68012298
:1059400083F83D20002318460837BD4680BD80B44B
:1059500083B000AF786000BF0C37BD465DF8047BB4
:105960007047000080B485B000AF78607B6893F822
:105970003D30DBB2012B01D001235EE07B680222C7
:1059800083F83D207B681B68DA687B681B6842F0FF
:105990000102DA607B681B682B4A93422CD07B683B
:1059A0001B68B3F1804F27D07B681B68274A93425E
:1059B00022D07B681B68264A93421DD07B681B68F7
:1059C000244A934218D07B681B68234A934213D021
:1059D0007B681B68214A93420ED07B681B68204A73
:1059E000934209D07B681B681E4A934204D07B68AF
:1059F0001B681D4A934215D17B681B689A681B4B34
:105A00001340FB60FB68062B15D0FB68B3F5803FA5
:105A100011D07B681B681A687B681B6842F0010222
:105A20001A6008E07B681B681A687B681B6842F094
:105A300001021A6000E000BF002318461437BD467B
:105A40005DF8047B704700BF000001400004004087
:105A500000080040000C0040000401400018004015
:105A60000040014000E0004000E400400700010069
:105A700080B582B000AF78607B681B681B6903F05B
:105A80000203022B22D17B681B68DB6803F0020350
:105A9000022B1BD17B681B686FF002021A617B68C6
:105AA00001221A777B681B689B6903F00303002BB4
:105AB00003D0786800F005F905E0786800F0F7F8A1
:105AC000786800F008F97B6800221A777B681B6809
:105AD0001B6903F00403042B22D17B681B68DB687D
